{
  "_format": "hh-sol-artifact-1",
  "contractName": "RealEstate",
  "sourceName": "contracts/RealEstate.sol",
  "abi": [
    {
      "inputs": [],
      "stateMutability": "nonpayable",
      "type": "constructor"
    },
    {
      "anonymous": false,
      "inputs": [
        {
          "indexed": true,
          "internalType": "address",
          "name": "account",
          "type": "address"
        },
        {
          "indexed": true,
          "internalType": "address",
          "name": "operator",
          "type": "address"
        },
        {
          "indexed": false,
          "internalType": "bool",
          "name": "approved",
          "type": "bool"
        }
      ],
      "name": "ApprovalForAll",
      "type": "event"
    },
    {
      "anonymous": false,
      "inputs": [
        {
          "indexed": true,
          "internalType": "uint256",
          "name": "tokenId",
          "type": "uint256"
        },
        {
          "indexed": false,
          "internalType": "address",
          "name": "owner",
          "type": "address"
        },
        {
          "indexed": false,
          "internalType": "uint256",
          "name": "maxSupply",
          "type": "uint256"
        },
        {
          "indexed": false,
          "internalType": "uint256",
          "name": "price",
          "type": "uint256"
        },
        {
          "indexed": false,
          "internalType": "string",
          "name": "landDetails",
          "type": "string"
        }
      ],
      "name": "NewTokenCreated",
      "type": "event"
    },
    {
      "anonymous": false,
      "inputs": [
        {
          "indexed": true,
          "internalType": "address",
          "name": "seller",
          "type": "address"
        },
        {
          "indexed": false,
          "internalType": "uint256",
          "name": "offerId",
          "type": "uint256"
        }
      ],
      "name": "OfferCanceled",
      "type": "event"
    },
    {
      "anonymous": false,
      "inputs": [
        {
          "indexed": true,
          "internalType": "uint256",
          "name": "offerId",
          "type": "uint256"
        },
        {
          "indexed": false,
          "internalType": "uint256",
          "name": "tokenId",
          "type": "uint256"
        },
        {
          "indexed": false,
          "internalType": "address",
          "name": "creator",
          "type": "address"
        },
        {
          "indexed": false,
          "internalType": "uint256",
          "name": "quantity",
          "type": "uint256"
        },
        {
          "indexed": false,
          "internalType": "address[]",
          "name": "buyers",
          "type": "address[]"
        },
        {
          "indexed": false,
          "internalType": "uint256[]",
          "name": "areas",
          "type": "uint256[]"
        },
        {
          "indexed": false,
          "internalType": "uint256[]",
          "name": "prices",
          "type": "uint256[]"
        }
      ],
      "name": "OfferCreated",
      "type": "event"
    },
    {
      "anonymous": false,
      "inputs": [
        {
          "indexed": true,
          "internalType": "address",
          "name": "previousOwner",
          "type": "address"
        },
        {
          "indexed": true,
          "internalType": "address",
          "name": "newOwner",
          "type": "address"
        }
      ],
      "name": "OwnershipTransferred",
      "type": "event"
    },
    {
      "anonymous": false,
      "inputs": [
        {
          "indexed": true,
          "internalType": "address",
          "name": "from",
          "type": "address"
        },
        {
          "indexed": true,
          "internalType": "address",
          "name": "to",
          "type": "address"
        },
        {
          "indexed": false,
          "internalType": "uint256",
          "name": "tokenId",
          "type": "uint256"
        },
        {
          "indexed": false,
          "internalType": "uint256",
          "name": "quantity",
          "type": "uint256"
        }
      ],
      "name": "TokenTransferred",
      "type": "event"
    },
    {
      "anonymous": false,
      "inputs": [
        {
          "indexed": true,
          "internalType": "address",
          "name": "operator",
          "type": "address"
        },
        {
          "indexed": true,
          "internalType": "address",
          "name": "from",
          "type": "address"
        },
        {
          "indexed": true,
          "internalType": "address",
          "name": "to",
          "type": "address"
        },
        {
          "indexed": false,
          "internalType": "uint256[]",
          "name": "ids",
          "type": "uint256[]"
        },
        {
          "indexed": false,
          "internalType": "uint256[]",
          "name": "values",
          "type": "uint256[]"
        }
      ],
      "name": "TransferBatch",
      "type": "event"
    },
    {
      "anonymous": false,
      "inputs": [
        {
          "indexed": true,
          "internalType": "address",
          "name": "operator",
          "type": "address"
        },
        {
          "indexed": true,
          "internalType": "address",
          "name": "from",
          "type": "address"
        },
        {
          "indexed": true,
          "internalType": "address",
          "name": "to",
          "type": "address"
        },
        {
          "indexed": false,
          "internalType": "uint256",
          "name": "id",
          "type": "uint256"
        },
        {
          "indexed": false,
          "internalType": "uint256",
          "name": "value",
          "type": "uint256"
        }
      ],
      "name": "TransferSingle",
      "type": "event"
    },
    {
      "anonymous": false,
      "inputs": [
        {
          "indexed": false,
          "internalType": "string",
          "name": "value",
          "type": "string"
        },
        {
          "indexed": true,
          "internalType": "uint256",
          "name": "id",
          "type": "uint256"
        }
      ],
      "name": "URI",
      "type": "event"
    },
    {
      "stateMutability": "payable",
      "type": "fallback"
    },
    {
      "inputs": [],
      "name": "MIN_FEE",
      "outputs": [
        {
          "internalType": "uint256",
          "name": "",
          "type": "uint256"
        }
      ],
      "stateMutability": "view",
      "type": "function"
    },
    {
      "inputs": [
        {
          "internalType": "address",
          "name": "",
          "type": "address"
        }
      ],
      "name": "accDetails",
      "outputs": [
        {
          "internalType": "address",
          "name": "walletAddress",
          "type": "address"
        },
        {
          "internalType": "string",
          "name": "aadharCard",
          "type": "string"
        },
        {
          "internalType": "string",
          "name": "cardNo",
          "type": "string"
        },
        {
          "internalType": "uint256",
          "name": "cvv",
          "type": "uint256"
        },
        {
          "internalType": "string",
          "name": "name",
          "type": "string"
        },
        {
          "internalType": "string",
          "name": "expiry",
          "type": "string"
        },
        {
          "internalType": "string",
          "name": "avatar",
          "type": "string"
        }
      ],
      "stateMutability": "view",
      "type": "function"
    },
    {
      "inputs": [
        {
          "internalType": "address",
          "name": "",
          "type": "address"
        },
        {
          "internalType": "uint256",
          "name": "",
          "type": "uint256"
        }
      ],
      "name": "accTokenBalance",
      "outputs": [
        {
          "internalType": "uint256",
          "name": "",
          "type": "uint256"
        }
      ],
      "stateMutability": "view",
      "type": "function"
    },
    {
      "inputs": [
        {
          "internalType": "address",
          "name": "",
          "type": "address"
        }
      ],
      "name": "accountExists",
      "outputs": [
        {
          "internalType": "bool",
          "name": "",
          "type": "bool"
        }
      ],
      "stateMutability": "view",
      "type": "function"
    },
    {
      "inputs": [
        {
          "internalType": "uint256",
          "name": "",
          "type": "uint256"
        }
      ],
      "name": "accounts",
      "outputs": [
        {
          "internalType": "address",
          "name": "walletAddress",
          "type": "address"
        },
        {
          "internalType": "string",
          "name": "aadharCard",
          "type": "string"
        },
        {
          "internalType": "string",
          "name": "cardNo",
          "type": "string"
        },
        {
          "internalType": "uint256",
          "name": "cvv",
          "type": "uint256"
        },
        {
          "internalType": "string",
          "name": "name",
          "type": "string"
        },
        {
          "internalType": "string",
          "name": "expiry",
          "type": "string"
        },
        {
          "internalType": "string",
          "name": "avatar",
          "type": "string"
        }
      ],
      "stateMutability": "view",
      "type": "function"
    },
    {
      "inputs": [],
      "name": "admin",
      "outputs": [
        {
          "internalType": "address",
          "name": "",
          "type": "address"
        }
      ],
      "stateMutability": "view",
      "type": "function"
    },
    {
      "inputs": [],
      "name": "balance",
      "outputs": [
        {
          "internalType": "uint256",
          "name": "",
          "type": "uint256"
        }
      ],
      "stateMutability": "view",
      "type": "function"
    },
    {
      "inputs": [
        {
          "internalType": "address",
          "name": "account",
          "type": "address"
        },
        {
          "internalType": "uint256",
          "name": "id",
          "type": "uint256"
        }
      ],
      "name": "balanceOf",
      "outputs": [
        {
          "internalType": "uint256",
          "name": "",
          "type": "uint256"
        }
      ],
      "stateMutability": "view",
      "type": "function"
    },
    {
      "inputs": [
        {
          "internalType": "address[]",
          "name": "accounts",
          "type": "address[]"
        },
        {
          "internalType": "uint256[]",
          "name": "ids",
          "type": "uint256[]"
        }
      ],
      "name": "balanceOfBatch",
      "outputs": [
        {
          "internalType": "uint256[]",
          "name": "",
          "type": "uint256[]"
        }
      ],
      "stateMutability": "view",
      "type": "function"
    },
    {
      "inputs": [
        {
          "internalType": "address",
          "name": "",
          "type": "address"
        },
        {
          "internalType": "uint256",
          "name": "",
          "type": "uint256"
        }
      ],
      "name": "buyOffers",
      "outputs": [
        {
          "internalType": "uint256",
          "name": "offerId",
          "type": "uint256"
        },
        {
          "internalType": "address",
          "name": "owner",
          "type": "address"
        },
        {
          "internalType": "uint256",
          "name": "quantity",
          "type": "uint256"
        },
        {
          "internalType": "uint256",
          "name": "tokenId",
          "type": "uint256"
        },
        {
          "internalType": "enum RealEstate.Status",
          "name": "status",
          "type": "uint8"
        }
      ],
      "stateMutability": "view",
      "type": "function"
    },
    {
      "inputs": [
        {
          "internalType": "address",
          "name": "",
          "type": "address"
        },
        {
          "internalType": "uint256",
          "name": "",
          "type": "uint256"
        }
      ],
      "name": "buyOffersArr",
      "outputs": [
        {
          "internalType": "uint256",
          "name": "offerId",
          "type": "uint256"
        },
        {
          "internalType": "address",
          "name": "owner",
          "type": "address"
        },
        {
          "internalType": "uint256",
          "name": "quantity",
          "type": "uint256"
        },
        {
          "internalType": "uint256",
          "name": "tokenId",
          "type": "uint256"
        },
        {
          "internalType": "enum RealEstate.Status",
          "name": "status",
          "type": "uint8"
        }
      ],
      "stateMutability": "view",
      "type": "function"
    },
    {
      "inputs": [
        {
          "internalType": "uint256",
          "name": "_offerId",
          "type": "uint256"
        },
        {
          "internalType": "uint256",
          "name": "_tokenId",
          "type": "uint256"
        },
        {
          "internalType": "uint256",
          "name": "_quan",
          "type": "uint256"
        }
      ],
      "name": "buyToken",
      "outputs": [],
      "stateMutability": "payable",
      "type": "function"
    },
    {
      "inputs": [
        {
          "internalType": "address",
          "name": "_wallet",
          "type": "address"
        },
        {
          "internalType": "string",
          "name": "_aadharCard",
          "type": "string"
        },
        {
          "internalType": "string",
          "name": "_cardNo",
          "type": "string"
        },
        {
          "internalType": "uint256",
          "name": "_cvv",
          "type": "uint256"
        },
        {
          "internalType": "string",
          "name": "_name",
          "type": "string"
        },
        {
          "internalType": "string",
          "name": "_expiry",
          "type": "string"
        },
        {
          "internalType": "string",
          "name": "_avatar",
          "type": "string"
        }
      ],
      "name": "createAccount",
      "outputs": [],
      "stateMutability": "nonpayable",
      "type": "function"
    },
    {
      "inputs": [
        {
          "internalType": "uint256",
          "name": "_maxSupply",
          "type": "uint256"
        },
        {
          "internalType": "uint256",
          "name": "_price",
          "type": "uint256"
        },
        {
          "internalType": "string",
          "name": "_landDetails",
          "type": "string"
        }
      ],
      "name": "createToken",
      "outputs": [],
      "stateMutability": "payable",
      "type": "function"
    },
    {
      "inputs": [],
      "name": "currOfferId",
      "outputs": [
        {
          "internalType": "uint256",
          "name": "",
          "type": "uint256"
        }
      ],
      "stateMutability": "view",
      "type": "function"
    },
    {
      "inputs": [],
      "name": "currTokenId",
      "outputs": [
        {
          "internalType": "uint256",
          "name": "",
          "type": "uint256"
        }
      ],
      "stateMutability": "view",
      "type": "function"
    },
    {
      "inputs": [],
      "name": "decOfferId",
      "outputs": [],
      "stateMutability": "nonpayable",
      "type": "function"
    },
    {
      "inputs": [],
      "name": "decTokenId",
      "outputs": [],
      "stateMutability": "nonpayable",
      "type": "function"
    },
    {
      "inputs": [
        {
          "internalType": "address",
          "name": "_user",
          "type": "address"
        }
      ],
      "name": "getBuyOffers",
      "outputs": [
        {
          "components": [
            {
              "internalType": "uint256",
              "name": "offerId",
              "type": "uint256"
            },
            {
              "internalType": "address",
              "name": "owner",
              "type": "address"
            },
            {
              "internalType": "uint256",
              "name": "quantity",
              "type": "uint256"
            },
            {
              "internalType": "uint256",
              "name": "tokenId",
              "type": "uint256"
            },
            {
              "internalType": "enum RealEstate.Status",
              "name": "status",
              "type": "uint8"
            },
            {
              "internalType": "address[]",
              "name": "buyers",
              "type": "address[]"
            },
            {
              "internalType": "uint256[]",
              "name": "areas",
              "type": "uint256[]"
            },
            {
              "internalType": "uint256[]",
              "name": "prices",
              "type": "uint256[]"
            }
          ],
          "internalType": "struct RealEstate.Offer[]",
          "name": "",
          "type": "tuple[]"
        }
      ],
      "stateMutability": "view",
      "type": "function"
    },
    {
      "inputs": [
        {
          "internalType": "address",
          "name": "_user",
          "type": "address"
        }
      ],
      "name": "getSellOffers",
      "outputs": [
        {
          "components": [
            {
              "internalType": "uint256",
              "name": "offerId",
              "type": "uint256"
            },
            {
              "internalType": "address",
              "name": "owner",
              "type": "address"
            },
            {
              "internalType": "uint256",
              "name": "quantity",
              "type": "uint256"
            },
            {
              "internalType": "uint256",
              "name": "tokenId",
              "type": "uint256"
            },
            {
              "internalType": "enum RealEstate.Status",
              "name": "status",
              "type": "uint8"
            },
            {
              "internalType": "address[]",
              "name": "buyers",
              "type": "address[]"
            },
            {
              "internalType": "uint256[]",
              "name": "areas",
              "type": "uint256[]"
            },
            {
              "internalType": "uint256[]",
              "name": "prices",
              "type": "uint256[]"
            }
          ],
          "internalType": "struct RealEstate.Offer[]",
          "name": "",
          "type": "tuple[]"
        }
      ],
      "stateMutability": "view",
      "type": "function"
    },
    {
      "inputs": [],
      "name": "getTokens",
      "outputs": [
        {
          "components": [
            {
              "internalType": "uint256",
              "name": "tokenId",
              "type": "uint256"
            },
            {
              "internalType": "string",
              "name": "metaData",
              "type": "string"
            },
            {
              "internalType": "uint256",
              "name": "maxDivisions",
              "type": "uint256"
            },
            {
              "internalType": "uint256",
              "name": "price",
              "type": "uint256"
            }
          ],
          "internalType": "struct RealEstate.Token[]",
          "name": "",
          "type": "tuple[]"
        }
      ],
      "stateMutability": "view",
      "type": "function"
    },
    {
      "inputs": [
        {
          "internalType": "address",
          "name": "_user",
          "type": "address"
        }
      ],
      "name": "getUserInfo",
      "outputs": [
        {
          "components": [
            {
              "internalType": "address",
              "name": "walletAddress",
              "type": "address"
            },
            {
              "internalType": "string",
              "name": "aadharCard",
              "type": "string"
            },
            {
              "internalType": "string",
              "name": "cardNo",
              "type": "string"
            },
            {
              "internalType": "uint256",
              "name": "cvv",
              "type": "uint256"
            },
            {
              "internalType": "string",
              "name": "name",
              "type": "string"
            },
            {
              "internalType": "string",
              "name": "expiry",
              "type": "string"
            },
            {
              "internalType": "string",
              "name": "avatar",
              "type": "string"
            }
          ],
          "internalType": "struct RealEstate.Account",
          "name": "",
          "type": "tuple"
        }
      ],
      "stateMutability": "view",
      "type": "function"
    },
    {
      "inputs": [
        {
          "internalType": "address",
          "name": "_user",
          "type": "address"
        }
      ],
      "name": "getUserTokens",
      "outputs": [
        {
          "components": [
            {
              "internalType": "uint256",
              "name": "tokenId",
              "type": "uint256"
            },
            {
              "internalType": "string",
              "name": "metaData",
              "type": "string"
            },
            {
              "internalType": "uint256",
              "name": "maxDivisions",
              "type": "uint256"
            },
            {
              "internalType": "uint256",
              "name": "price",
              "type": "uint256"
            }
          ],
          "internalType": "struct RealEstate.Token[]",
          "name": "",
          "type": "tuple[]"
        }
      ],
      "stateMutability": "view",
      "type": "function"
    },
    {
      "inputs": [],
      "name": "incOfferId",
      "outputs": [],
      "stateMutability": "nonpayable",
      "type": "function"
    },
    {
      "inputs": [],
      "name": "incTokenId",
      "outputs": [],
      "stateMutability": "nonpayable",
      "type": "function"
    },
    {
      "inputs": [
        {
          "internalType": "address",
          "name": "account",
          "type": "address"
        },
        {
          "internalType": "address",
          "name": "operator",
          "type": "address"
        }
      ],
      "name": "isApprovedForAll",
      "outputs": [
        {
          "internalType": "bool",
          "name": "",
          "type": "bool"
        }
      ],
      "stateMutability": "view",
      "type": "function"
    },
    {
      "inputs": [
        {
          "internalType": "uint256",
          "name": "_tokenId",
          "type": "uint256"
        },
        {
          "internalType": "address[]",
          "name": "_buyers",
          "type": "address[]"
        },
        {
          "internalType": "uint256",
          "name": "_quantity",
          "type": "uint256"
        },
        {
          "internalType": "uint256[]",
          "name": "_areas",
          "type": "uint256[]"
        },
        {
          "internalType": "uint256[]",
          "name": "_prices",
          "type": "uint256[]"
        }
      ],
      "name": "offer",
      "outputs": [],
      "stateMutability": "nonpayable",
      "type": "function"
    },
    {
      "inputs": [
        {
          "internalType": "uint256",
          "name": "_offerId",
          "type": "uint256"
        }
      ],
      "name": "offerCancel",
      "outputs": [],
      "stateMutability": "payable",
      "type": "function"
    },
    {
      "inputs": [
        {
          "internalType": "uint256",
          "name": "",
          "type": "uint256"
        }
      ],
      "name": "offers",
      "outputs": [
        {
          "internalType": "uint256",
          "name": "offerId",
          "type": "uint256"
        },
        {
          "internalType": "address",
          "name": "owner",
          "type": "address"
        },
        {
          "internalType": "uint256",
          "name": "quantity",
          "type": "uint256"
        },
        {
          "internalType": "uint256",
          "name": "tokenId",
          "type": "uint256"
        },
        {
          "internalType": "enum RealEstate.Status",
          "name": "status",
          "type": "uint8"
        }
      ],
      "stateMutability": "view",
      "type": "function"
    },
    {
      "inputs": [],
      "name": "owner",
      "outputs": [
        {
          "internalType": "address",
          "name": "",
          "type": "address"
        }
      ],
      "stateMutability": "view",
      "type": "function"
    },
    {
      "inputs": [
        {
          "internalType": "address",
          "name": "",
          "type": "address"
        },
        {
          "internalType": "uint256",
          "name": "",
          "type": "uint256"
        }
      ],
      "name": "ownerTokenDetails",
      "outputs": [
        {
          "internalType": "uint256",
          "name": "tokenId",
          "type": "uint256"
        },
        {
          "internalType": "string",
          "name": "metaData",
          "type": "string"
        },
        {
          "internalType": "uint256",
          "name": "maxDivisions",
          "type": "uint256"
        },
        {
          "internalType": "uint256",
          "name": "price",
          "type": "uint256"
        }
      ],
      "stateMutability": "view",
      "type": "function"
    },
    {
      "inputs": [
        {
          "internalType": "address",
          "name": "",
          "type": "address"
        },
        {
          "internalType": "uint256",
          "name": "",
          "type": "uint256"
        }
      ],
      "name": "properties",
      "outputs": [
        {
          "internalType": "uint256",
          "name": "tokenId",
          "type": "uint256"
        },
        {
          "internalType": "string",
          "name": "metaData",
          "type": "string"
        },
        {
          "internalType": "uint256",
          "name": "maxDivisions",
          "type": "uint256"
        },
        {
          "internalType": "uint256",
          "name": "price",
          "type": "uint256"
        }
      ],
      "stateMutability": "view",
      "type": "function"
    },
    {
      "inputs": [],
      "name": "renounceOwnership",
      "outputs": [],
      "stateMutability": "nonpayable",
      "type": "function"
    },
    {
      "inputs": [
        {
          "internalType": "address",
          "name": "from",
          "type": "address"
        },
        {
          "internalType": "address",
          "name": "to",
          "type": "address"
        },
        {
          "internalType": "uint256[]",
          "name": "ids",
          "type": "uint256[]"
        },
        {
          "internalType": "uint256[]",
          "name": "amounts",
          "type": "uint256[]"
        },
        {
          "internalType": "bytes",
          "name": "data",
          "type": "bytes"
        }
      ],
      "name": "safeBatchTransferFrom",
      "outputs": [],
      "stateMutability": "nonpayable",
      "type": "function"
    },
    {
      "inputs": [
        {
          "internalType": "address",
          "name": "from",
          "type": "address"
        },
        {
          "internalType": "address",
          "name": "to",
          "type": "address"
        },
        {
          "internalType": "uint256",
          "name": "id",
          "type": "uint256"
        },
        {
          "internalType": "uint256",
          "name": "amount",
          "type": "uint256"
        },
        {
          "internalType": "bytes",
          "name": "data",
          "type": "bytes"
        }
      ],
      "name": "safeTransferFrom",
      "outputs": [],
      "stateMutability": "nonpayable",
      "type": "function"
    },
    {
      "inputs": [
        {
          "internalType": "address",
          "name": "",
          "type": "address"
        },
        {
          "internalType": "uint256",
          "name": "",
          "type": "uint256"
        }
      ],
      "name": "sellOffers",
      "outputs": [
        {
          "internalType": "uint256",
          "name": "offerId",
          "type": "uint256"
        },
        {
          "internalType": "address",
          "name": "owner",
          "type": "address"
        },
        {
          "internalType": "uint256",
          "name": "quantity",
          "type": "uint256"
        },
        {
          "internalType": "uint256",
          "name": "tokenId",
          "type": "uint256"
        },
        {
          "internalType": "enum RealEstate.Status",
          "name": "status",
          "type": "uint8"
        }
      ],
      "stateMutability": "view",
      "type": "function"
    },
    {
      "inputs": [
        {
          "internalType": "address",
          "name": "",
          "type": "address"
        },
        {
          "internalType": "uint256",
          "name": "",
          "type": "uint256"
        }
      ],
      "name": "sellOffersArr",
      "outputs": [
        {
          "internalType": "uint256",
          "name": "offerId",
          "type": "uint256"
        },
        {
          "internalType": "address",
          "name": "owner",
          "type": "address"
        },
        {
          "internalType": "uint256",
          "name": "quantity",
          "type": "uint256"
        },
        {
          "internalType": "uint256",
          "name": "tokenId",
          "type": "uint256"
        },
        {
          "internalType": "enum RealEstate.Status",
          "name": "status",
          "type": "uint8"
        }
      ],
      "stateMutability": "view",
      "type": "function"
    },
    {
      "inputs": [
        {
          "internalType": "address",
          "name": "operator",
          "type": "address"
        },
        {
          "internalType": "bool",
          "name": "approved",
          "type": "bool"
        }
      ],
      "name": "setApprovalForAll",
      "outputs": [],
      "stateMutability": "nonpayable",
      "type": "function"
    },
    {
      "inputs": [],
      "name": "status",
      "outputs": [
        {
          "internalType": "enum RealEstate.Status",
          "name": "",
          "type": "uint8"
        }
      ],
      "stateMutability": "view",
      "type": "function"
    },
    {
      "inputs": [
        {
          "internalType": "bytes4",
          "name": "interfaceId",
          "type": "bytes4"
        }
      ],
      "name": "supportsInterface",
      "outputs": [
        {
          "internalType": "bool",
          "name": "",
          "type": "bool"
        }
      ],
      "stateMutability": "view",
      "type": "function"
    },
    {
      "inputs": [
        {
          "internalType": "uint256",
          "name": "",
          "type": "uint256"
        }
      ],
      "name": "tokenInfo",
      "outputs": [
        {
          "internalType": "uint256",
          "name": "tokenId",
          "type": "uint256"
        },
        {
          "internalType": "string",
          "name": "metaData",
          "type": "string"
        },
        {
          "internalType": "uint256",
          "name": "maxDivisions",
          "type": "uint256"
        },
        {
          "internalType": "uint256",
          "name": "price",
          "type": "uint256"
        }
      ],
      "stateMutability": "view",
      "type": "function"
    },
    {
      "inputs": [
        {
          "internalType": "uint256",
          "name": "",
          "type": "uint256"
        }
      ],
      "name": "tokens",
      "outputs": [
        {
          "internalType": "uint256",
          "name": "tokenId",
          "type": "uint256"
        },
        {
          "internalType": "string",
          "name": "metaData",
          "type": "string"
        },
        {
          "internalType": "uint256",
          "name": "maxDivisions",
          "type": "uint256"
        },
        {
          "internalType": "uint256",
          "name": "price",
          "type": "uint256"
        }
      ],
      "stateMutability": "view",
      "type": "function"
    },
    {
      "inputs": [
        {
          "internalType": "address",
          "name": "_from",
          "type": "address"
        },
        {
          "internalType": "address",
          "name": "_to",
          "type": "address"
        },
        {
          "internalType": "uint256",
          "name": "_tokenId",
          "type": "uint256"
        },
        {
          "internalType": "uint256",
          "name": "_amount",
          "type": "uint256"
        }
      ],
      "name": "transfer",
      "outputs": [],
      "stateMutability": "nonpayable",
      "type": "function"
    },
    {
      "inputs": [
        {
          "internalType": "address",
          "name": "newOwner",
          "type": "address"
        }
      ],
      "name": "transferOwnership",
      "outputs": [],
      "stateMutability": "nonpayable",
      "type": "function"
    },
    {
      "inputs": [
        {
          "internalType": "uint256",
          "name": "",
          "type": "uint256"
        }
      ],
      "name": "uri",
      "outputs": [
        {
          "internalType": "string",
          "name": "",
          "type": "string"
        }
      ],
      "stateMutability": "view",
      "type": "function"
    },
    {
      "inputs": [],
      "name": "withdraw",
      "outputs": [],
      "stateMutability": "payable",
      "type": "function"
    },
    {
      "stateMutability": "payable",
      "type": "receive"
    }
  ],
  "bytecode": "0x60806040523480156200001157600080fd5b506040805160208101909152600081526200002c8162000064565b50620000383362000076565b600480546001600160a01b0319163317905562000054620000c8565b6200005e620000e1565b62000272565b6002620000728282620001a6565b5050565b600380546001600160a01b038381166001600160a01b0319831681179093556040519116919082907f8be0079c531659141344cd1fd0a4f28419497f9722a3daafe3b4186f6b6457e090600090a35050565b620000df6005620000f860201b62002eeb1760201c565b565b620000df6006620000f860201b62002eeb1760201c565b80546001019055565b634e487b7160e01b600052604160045260246000fd5b600181811c908216806200012c57607f821691505b6020821081036200014d57634e487b7160e01b600052602260045260246000fd5b50919050565b601f821115620001a157600081815260208120601f850160051c810160208610156200017c5750805b601f850160051c820191505b818110156200019d5782815560010162000188565b5050505b505050565b81516001600160401b03811115620001c257620001c262000101565b620001da81620001d3845462000117565b8462000153565b602080601f831160018114620002125760008415620001f95750858301515b600019600386901b1c1916600185901b1785556200019d565b600085815260208120601f198616915b82811015620002435788860151825594840194600190910190840162000222565b5085821015620002625787850151600019600388901b60f8161c191681555b5050505050600190811b01905550565b6147cb80620002826000396000f3fe6080604052600436106102685760003560e01c8063713746fd11610143578063b2b75db1116100bb578063e985e9c511610077578063e985e9c514610826578063f242432a1461086f578063f2a40db81461088f578063f2fde38b146108af578063f851a440146108cf578063fd449270146108ef57005b8063b2b75db114610796578063b69ef8a8146107ab578063cb774f0e146107be578063cc33c875146107de578063de2d554b146107fe578063e1a6fb551461081157005b80638a72ea6a1161010a5780638a72ea6a146106dc5780638da5cb5b146106fc57806399b024841461072e57806399b2aec31461074e578063a22cb46514610761578063aa6ca8081461078157005b8063713746fd14610651578063715018a61461066657806375cd51ed1461067b57806376c7a3c7146106ab578063831d912d146106c757005b80633254c33c116101e15780635e2381031161019d5780635e238103146105185780635f78f4361461057a5780636386c1c71461058d5780636bc27f9e146105ba5780636c951ccc146105da5780636f933f961461063c57005b80633254c33c146104365780633bf6b96f146104635780633ccfd60b146104965780634e1273f41461049e5780634f64b2be146104cb578063519dc8d2146104eb57005b806314bfcdd71161023057806314bfcdd7146103525780631b192245146103825780631cc4d83f146103a2578063200d2ed2146103b75780632df8cdf9146103de5780632eb2c2d61461041657005b8062fdd58e1461027157806301ffc9a7146102a45780630411b252146102d45780630e89341c146102f457806311a875eb1461032157005b3661026f57005b005b34801561027d57600080fd5b5061029161028c36600461381b565b61090f565b6040519081526020015b60405180910390f35b3480156102b057600080fd5b506102c46102bf36600461385b565b6109a8565b604051901515815260200161029b565b3480156102e057600080fd5b5061026f6102ef36600461387f565b6109f8565b34801561030057600080fd5b5061031461030f3660046138c1565b610a1a565b60405161029b9190613920565b34801561032d57600080fd5b5061034161033c36600461381b565b610aae565b60405161029b95949392919061396b565b34801561035e57600080fd5b5061037261036d36600461381b565b610b09565b60405161029b94939291906139a6565b34801561038e57600080fd5b5061026f61039d366004613b17565b610bde565b3480156103ae57600080fd5b5061026f61153f565b3480156103c357600080fd5b506014546103d19060ff1681565b60405161029b9190613bb3565b3480156103ea57600080fd5b506102916103f936600461381b565b601360209081526000928352604080842090915290825290205481565b34801561042257600080fd5b5061026f610431366004613c35565b61154f565b34801561044257600080fd5b50610456610451366004613cd2565b61159b565b60405161029b9190613d61565b34801561046f57600080fd5b5061048361047e366004613cd2565b61178b565b60405161029b9796959493929190613e4d565b61026f611a78565b3480156104aa57600080fd5b506104be6104b9366004613ed3565b611b1d565b60405161029b9190613f37565b3480156104d757600080fd5b506103726104e63660046138c1565b611c47565b3480156104f757600080fd5b5061050b610506366004613cd2565b611c7c565b60405161029b9190613f4a565b34801561052457600080fd5b5061034161053336600461381b565b600a6020908152600092835260408084209091529082529020805460018201546002830154600384015460049094015492936001600160a01b039092169290919060ff1685565b61026f610588366004613fc7565b611d96565b34801561059957600080fd5b506105ad6105a8366004613cd2565b611fe7565b60405161029b9190614017565b3480156105c657600080fd5b5061026f6105d53660046140cf565b61234e565b3480156105e657600080fd5b506103416105f536600461381b565b60096020908152600092835260408084209091529082529020805460018201546002830154600384015460049094015492936001600160a01b039092169290919060ff1685565b34801561064857600080fd5b5061026f612536565b34801561065d57600080fd5b5061026f612544565b34801561067257600080fd5b5061026f61254e565b34801561068757600080fd5b506102c4610696366004613cd2565b60116020526000908152604090205460ff1681565b3480156106b757600080fd5b50610291670de0b6b3a764000081565b3480156106d357600080fd5b50610291612560565b3480156106e857600080fd5b506103416106f73660046138c1565b612570565b34801561070857600080fd5b506003546001600160a01b03165b6040516001600160a01b03909116815260200161029b565b34801561073a57600080fd5b5061037261074936600461381b565b6125be565b61026f61075c3660046138c1565b6125da565b34801561076d57600080fd5b5061026f61077c3660046141bb565b61269e565b34801561078d57600080fd5b5061050b6126ad565b3480156107a257600080fd5b5061026f6127bc565b3480156107b757600080fd5b5047610291565b3480156107ca57600080fd5b506103416107d936600461381b565b6127c6565b3480156107ea57600080fd5b506103726107f93660046138c1565b6127e2565b61026f61080c3660046141f7565b612804565b34801561081d57600080fd5b50610291612c01565b34801561083257600080fd5b506102c4610841366004614223565b6001600160a01b03918216600090815260016020908152604080832093909416825291909152205460ff1690565b34801561087b57600080fd5b5061026f61088a366004614256565b612c0c565b34801561089b57600080fd5b506104836108aa3660046138c1565b612c51565b3480156108bb57600080fd5b5061026f6108ca366004613cd2565b612c90565b3480156108db57600080fd5b50600454610716906001600160a01b031681565b3480156108fb57600080fd5b5061045661090a366004613cd2565b612d06565b60006001600160a01b03831661097f5760405162461bcd60e51b815260206004820152602a60248201527f455243313135353a2061646472657373207a65726f206973206e6f742061207660448201526930b634b21037bbb732b960b11b60648201526084015b60405180910390fd5b506000818152602081815260408083206001600160a01b03861684529091529020545b92915050565b60006001600160e01b03198216636cdb3d1360e11b14806109d957506001600160e01b031982166303a24d0760e21b145b806109a257506301ffc9a760e01b6001600160e01b03198316146109a2565b610a148484848460405180602001604052806000815250612ef4565b50505050565b606060028054610a29906142bb565b80601f0160208091040260200160405190810160405280929190818152602001828054610a55906142bb565b8015610aa25780601f10610a7757610100808354040283529160200191610aa2565b820191906000526020600020905b815481529060010190602001808311610a8557829003601f168201915b50505050509050919050565b600b6020528160005260406000208181548110610aca57600080fd5b6000918252602090912060089091020180546001820154600283015460038401546004909401549295506001600160a01b039091169350919060ff1685565b60086020528160005260406000208181548110610b2557600080fd5b906000526020600020906004020160009150915050806000015490806001018054610b4f906142bb565b80601f0160208091040260200160405190810160405280929190818152602001828054610b7b906142bb565b8015610bc85780601f10610b9d57610100808354040283529160200191610bc8565b820191906000526020600020905b815481529060010190602001808311610bab57829003601f168201915b5050505050908060020154908060030154905084565b82610be9338761090f565b1015610c375760405162461bcd60e51b815260206004820152601960248201527f596f7520646f206e6f74206f776e2074686973206173736574000000000000006044820152606401610976565b6000610c41612560565b60408051610100810182528281523360208083018281528385018a8152606085018d815260006080870181815260a088018f905260c088018d905260e088018c9052958152600a855287812089825290945295909220845181559051600180830180546001600160a01b0319166001600160a01b039093169290921790915591516002808301919091559451600382015591516004830180549697509395869593949193919260ff19909116918490811115610cff57610cff613933565b021790555060a08201518051610d1f91600584019160209091019061374a565b5060c08201518051610d3b9160068401916020909101906137af565b5060e08201518051610d579160078401916020909101906137af565b5050336000908152600c602090815260408083208054600180820183559185529383902086516008909502019384559185015183830180546001600160a01b0319166001600160a01b039092169190911790558401516002808401919091556060850151600384015560808501516004840180548796509193909260ff19909216918490811115610dea57610dea613933565b021790555060a08201518051610e0a91600584019160209091019061374a565b5060c08201518051610e269160068401916020909101906137af565b5060e08201518051610e429160078401916020909101906137af565b5050600d80546001808201835560009290925283517fd7b6990105719101dabeb77144f2a3385c8033acd3af97e9423a695e81ad1eb5600890920291820190815560208501517fd7b6990105719101dabeb77144f2a3385c8033acd3af97e9423a695e81ad1eb6830180546001600160a01b0319166001600160a01b0390921691909117905560408501517fd7b6990105719101dabeb77144f2a3385c8033acd3af97e9423a695e81ad1eb783015560608501517fd7b6990105719101dabeb77144f2a3385c8033acd3af97e9423a695e81ad1eb883015560808501517fd7b6990105719101dabeb77144f2a3385c8033acd3af97e9423a695e81ad1eb990920180548695509193909160ff191690836002811115610f6357610f63613933565b021790555060a08201518051610f8391600584019160209091019061374a565b5060c08201518051610f9f9160068401916020909101906137af565b5060e08201518051610fbb9160078401916020909101906137af565b505050817e1c4d7a49ebd20acf522c9cf9e512a2935d45ea37ee6047631caa9b3d453b418833888a8989604051610ff7969594939291906142f5565b60405180910390a260005b865181101561152d57606087828151811061101f5761101f614355565b60200260200101518160008151811061103a5761103a614355565b60200260200101906001600160a01b031690816001600160a01b031681525050606086838151811061106e5761106e614355565b60200260200101518160008151811061108957611089614355565b60200260200101818152505060608684815181106110a9576110a9614355565b6020026020010151816000815181106110c4576110c4614355565b6020026020010181815250506000604051806101000160405280888152602001336001600160a01b031681526020018b81526020018d81526020016000600281111561111257611112613933565b815260200185815260200184815260200183815250905080600960008d888151811061114057611140614355565b60200260200101516001600160a01b03166001600160a01b0316815260200190815260200160002060008981526020019081526020016000206000820151816000015560208201518160010160006101000a8154816001600160a01b0302191690836001600160a01b03160217905550604082015181600201556060820151816003015560808201518160040160006101000a81548160ff021916908360028111156111ee576111ee613933565b021790555060a0820151805161120e91600584019160209091019061374a565b5060c0820151805161122a9160068401916020909101906137af565b5060e082015180516112469160078401916020909101906137af565b50905050600b60008c878151811061126057611260614355565b6020908102919091018101516001600160a01b03908116835282820193909352604091820160009081208054600180820183559183529183902086516008909302019182559185015181830180546001600160a01b0319169190951617909355908301516002808401919091556060840151600384015560808401516004840180548695949293919260ff1990911691849081111561130157611301613933565b021790555060a0820151805161132191600584019160209091019061374a565b5060c0820151805161133d9160068401916020909101906137af565b5060e082015180516113599160078401916020909101906137af565b5050600d80546001808201835560009290925283517fd7b6990105719101dabeb77144f2a3385c8033acd3af97e9423a695e81ad1eb5600890920291820190815560208501517fd7b6990105719101dabeb77144f2a3385c8033acd3af97e9423a695e81ad1eb6830180546001600160a01b0319166001600160a01b0390921691909117905560408501517fd7b6990105719101dabeb77144f2a3385c8033acd3af97e9423a695e81ad1eb783015560608501517fd7b6990105719101dabeb77144f2a3385c8033acd3af97e9423a695e81ad1eb883015560808501517fd7b6990105719101dabeb77144f2a3385c8033acd3af97e9423a695e81ad1eb990920180548695509193909160ff19169083600281111561147a5761147a613933565b021790555060a0820151805161149a91600584019160209091019061374a565b5060c082015180516114b69160068401916020909101906137af565b5060e082015180516114d29160078401916020909101906137af565b505050867e1c4d7a49ebd20acf522c9cf9e512a2935d45ea37ee6047631caa9b3d453b418d338d88888860405161150e969594939291906142f5565b60405180910390a250505050808061152590614381565b915050611002565b5061153661153f565b50505050505050565b61154d600680546001019055565b565b6001600160a01b03851633148061156b575061156b8533610841565b6115875760405162461bcd60e51b81526004016109769061439a565b611594858585858561301e565b5050505050565b6001600160a01b0381166000908152600c60209081526040808320805482518185028101850190935280835260609492939192909184015b828210156117805760008481526020908190206040805161010081018252600886029092018054835260018101546001600160a01b03169383019390935260028084015491830191909152600383015460608301526004830154919291608084019160ff9091169081111561164a5761164a613933565b600281111561165b5761165b613933565b8152602001600582018054806020026020016040519081016040528092919081815260200182805480156116b857602002820191906000526020600020905b81546001600160a01b0316815260019091019060200180831161169a575b505050505081526020016006820180548060200260200160405190810160405280929190818152602001828054801561171057602002820191906000526020600020905b8154815260200190600101908083116116fc575b505050505081526020016007820180548060200260200160405190810160405280929190818152602001828054801561176857602002820191906000526020600020905b815481526020019060010190808311611754575b505050505081525050815260200190600101906115d3565b505050509050919050565b601060205260009081526040902080546001820180546001600160a01b0390921692916117b7906142bb565b80601f01602080910402602001604051908101604052809291908181526020018280546117e3906142bb565b80156118305780601f1061180557610100808354040283529160200191611830565b820191906000526020600020905b81548152906001019060200180831161181357829003601f168201915b505050505090806002018054611845906142bb565b80601f0160208091040260200160405190810160405280929190818152602001828054611871906142bb565b80156118be5780601f10611893576101008083540402835291602001916118be565b820191906000526020600020905b8154815290600101906020018083116118a157829003601f168201915b5050505050908060030154908060040180546118d9906142bb565b80601f0160208091040260200160405190810160405280929190818152602001828054611905906142bb565b80156119525780601f1061192757610100808354040283529160200191611952565b820191906000526020600020905b81548152906001019060200180831161193557829003601f168201915b505050505090806005018054611967906142bb565b80601f0160208091040260200160405190810160405280929190818152602001828054611993906142bb565b80156119e05780601f106119b5576101008083540402835291602001916119e0565b820191906000526020600020905b8154815290600101906020018083116119c357829003601f168201915b5050505050908060060180546119f5906142bb565b80601f0160208091040260200160405190810160405280929190818152602001828054611a21906142bb565b8015611a6e5780601f10611a4357610100808354040283529160200191611a6e565b820191906000526020600020905b815481529060010190602001808311611a5157829003601f168201915b5050505050905087565b611a806131fb565b6004546040516000916001600160a01b03169047908381818185875af1925050503d8060008114611acd576040519150601f19603f3d011682016040523d82523d6000602084013e611ad2565b606091505b5050905080611b1a5760405162461bcd60e51b81526020600482015260146024820152732330b4b632b2103a379039b2b7321022ba3432b960611b6044820152606401610976565b50565b60608151835114611b825760405162461bcd60e51b815260206004820152602960248201527f455243313135353a206163636f756e747320616e6420696473206c656e677468604482015268040dad2e6dac2e8c6d60bb1b6064820152608401610976565b6000835167ffffffffffffffff811115611b9e57611b9e6139d2565b604051908082528060200260200182016040528015611bc7578160200160208202803683370190505b50905060005b8451811015611c3f57611c12858281518110611beb57611beb614355565b6020026020010151858381518110611c0557611c05614355565b602002602001015161090f565b828281518110611c2457611c24614355565b6020908102919091010152611c3881614381565b9050611bcd565b509392505050565b600e8181548110611c5757600080fd5b60009182526020909120600490910201805460018201805491935090610b4f906142bb565b6001600160a01b0381166000908152601260209081526040808320805482518185028101850190935280835260609492939192909184015b82821015611780578382906000526020600020906004020160405180608001604052908160008201548152602001600182018054611cf1906142bb565b80601f0160208091040260200160405190810160405280929190818152602001828054611d1d906142bb565b8015611d6a5780601f10611d3f57610100808354040283529160200191611d6a565b820191906000526020600020905b815481529060010190602001808311611d4d57829003601f168201915b505050505081526020016002820154815260200160038201548152505081526020019060010190611cb4565b670de0b6b3a76400003414611de25760405162461bcd60e51b81526020600482015260126024820152714e6f207472616e73616374696f6e2066656560701b6044820152606401610976565b3360009081526011602052604090205460ff161515600114611e3a5760405162461bcd60e51b815260206004820152601160248201527010dc99585d1948185b881858d8dbdd5b9d607a1b6044820152606401610976565b6000611e44612c01565b604080516080810182528281526020810185815291810187905260608101869052600e8054600181018255600091909152815160049091027fbb7b4a454dc3493923482f07822329ed19e8244eff582cc204f8554c3620c3fd81019182559251939450909283927fbb7b4a454dc3493923482f07822329ed19e8244eff582cc204f8554c3620c3fe0190611ed89082614433565b5060408281015160028301556060909201516003909101556000838152600f602090815291902082518155908201518291906001820190611f199082614433565b50604082810151600283015560609092015160039091015533600090815260126020908152918120805460018181018355918352918390208451600490930201918255918301518392820190611f6f9082614433565b5060408201518160020155606082015181600301555050611fa133838760405180602001604052806000815250613255565b817faff634f51c8177dd55c983ca59533207b3cf9811d594395e903133e3f1c3262c33878787604051611fd794939291906144f3565b60405180910390a2611594612536565b6120306040518060e0016040528060006001600160a01b031681526020016060815260200160608152602001600081526020016060815260200160608152602001606081525090565b6001600160a01b03808316600090815260106020908152604091829020825160e081019093528054909316825260018301805492939291840191612073906142bb565b80601f016020809104026020016040519081016040528092919081815260200182805461209f906142bb565b80156120ec5780601f106120c1576101008083540402835291602001916120ec565b820191906000526020600020905b8154815290600101906020018083116120cf57829003601f168201915b50505050508152602001600282018054612105906142bb565b80601f0160208091040260200160405190810160405280929190818152602001828054612131906142bb565b801561217e5780601f106121535761010080835404028352916020019161217e565b820191906000526020600020905b81548152906001019060200180831161216157829003601f168201915b50505050508152602001600382015481526020016004820180546121a1906142bb565b80601f01602080910402602001604051908101604052809291908181526020018280546121cd906142bb565b801561221a5780601f106121ef5761010080835404028352916020019161221a565b820191906000526020600020905b8154815290600101906020018083116121fd57829003601f168201915b50505050508152602001600582018054612233906142bb565b80601f016020809104026020016040519081016040528092919081815260200182805461225f906142bb565b80156122ac5780601f10612281576101008083540402835291602001916122ac565b820191906000526020600020905b81548152906001019060200180831161228f57829003601f168201915b505050505081526020016006820180546122c5906142bb565b80601f01602080910402602001604051908101604052809291908181526020018280546122f1906142bb565b801561233e5780601f106123135761010080835404028352916020019161233e565b820191906000526020600020905b81548152906001019060200180831161232157829003601f168201915b5050505050815250509050919050565b3360008181526011602090815260408083208054600160ff199091168117909155815160e0810183526001600160a01b038d811682528185018d81528285018d9052606083018c9052608083018b905260a083018a905260c08301899052968652601090945291909320815181546001600160a01b0319169316929092178255925183928201906123df9082614433565b50604082015160028201906123f49082614433565b5060608201516003820155608082015160048201906124139082614433565b5060a082015160058201906124289082614433565b5060c0820151600682019061243d9082614433565b5050600780546001810182556000829052835191027fa66cc928b5edb82af9bd49922954155ab7b0942694bea4ce44661d9a8736c688810180546001600160a01b039093166001600160a01b031990931692909217825560208401518493507fa66cc928b5edb82af9bd49922954155ab7b0942694bea4ce44661d9a8736c689909101906124cb9082614433565b50604082015160028201906124e09082614433565b5060608201516003820155608082015160048201906124ff9082614433565b5060a082015160058201906125149082614433565b5060c082015160068201906125299082614433565b5050505050505050505050565b61154d600580546001019055565b61154d6005613360565b6125566131fb565b61154d60006133b7565b600061256b60065490565b905090565b600d818154811061258057600080fd5b6000918252602090912060089091020180546001820154600283015460038401546004909401549294506001600160a01b0390911692909160ff1685565b60126020528160005260406000208181548110610b2557600080fd5b670de0b6b3a764000034146126315760405162461bcd60e51b815260206004820152601d60248201527f506c6561736520656e74657220746865207265717569726564206665650000006044820152606401610976565b336000908152600a6020908152604080832084845282529182902060048101805460ff1916600217905560010154825184815292516001600160a01b03909116927f871dc347e88ef58454c9f69d734469ed3f59dd31fd0d6b7960d092da71f4454d92908290030190a250565b6126a9338383613409565b5050565b6060600e805480602002602001604051908101604052809291908181526020016000905b828210156127b357838290600052602060002090600402016040518060800160405290816000820154815260200160018201805461270e906142bb565b80601f016020809104026020016040519081016040528092919081815260200182805461273a906142bb565b80156127875780601f1061275c57610100808354040283529160200191612787565b820191906000526020600020905b81548152906001019060200180831161276a57829003601f168201915b5050505050815260200160028201548152602001600382015481525050815260200190600101906126d1565b50505050905090565b61154d6006613360565b600c6020528160005260406000208181548110610aca57600080fd5b600f6020526000908152604090208054600182018054919291610b4f906142bb565b33600090815260096020908152604080832086845282528083208151610100810183528154815260018201546001600160a01b031693810193909352600280820154928401929092526003810154606084015260048101549091608084019160ff169081111561287657612876613933565b600281111561288757612887613933565b8152602001600582018054806020026020016040519081016040528092919081815260200182805480156128e457602002820191906000526020600020905b81546001600160a01b031681526001909101906020018083116128c6575b505050505081526020016006820180548060200260200160405190810160405280929190818152602001828054801561293c57602002820191906000526020600020905b815481526020019060010190808311612928575b505050505081526020016007820180548060200260200160405190810160405280929190818152602001828054801561299457602002820191906000526020600020905b815481526020019060010190808311612980575b5050505050815250509050816129ae82602001518561090f565b1015612a0f5760405162461bcd60e51b815260206004820152602a60248201527f596f7520646f206e6f74206f776e20656e6f6768206f6620697420746869732060448201526970726f7065727479202160b01b6064820152608401610976565b600081608001516002811115612a2757612a27613933565b14612a845760405162461bcd60e51b815260206004820152602760248201527f546865206f6666657220686173206265656e206163636570746564206f722072604482015266195a9958dd195960ca1b6064820152608401610976565b600e54831115612acc5760405162461bcd60e51b8152602060048201526013602482015272151bdad95b88191bd95cdb89dd08195e1a5cdd606a1b6044820152606401610976565b600081602001516001600160a01b03168260e00151600081518110612af357612af3614355565b602002602001015160405160006040518083038185875af1925050503d8060008114612b3b576040519150601f19603f3d011682016040523d82523d6000602084013e612b40565b606091505b5050905080612b885760405162461bcd60e51b81526020600482015260146024820152732330b4b632b2103a379039b2b7321022ba3432b960611b6044820152606401610976565b612b9882602001513386866109f8565b336001600160a01b031682602001516001600160a01b03167fb4b510017fa3548bf934bbeafb570ebc4f19982ace19ae88d2de59a13addebf18686604051612bea929190918252602082015260400190565b60405180910390a350600160809190910152505050565b600061256b60055490565b6001600160a01b038516331480612c285750612c288533610841565b612c445760405162461bcd60e51b81526004016109769061439a565b6115948585858585612ef4565b60078181548110612c6157600080fd5b6000918252602090912060079091020180546001820180546001600160a01b039092169350906117b7906142bb565b612c986131fb565b6001600160a01b038116612cfd5760405162461bcd60e51b815260206004820152602660248201527f4f776e61626c653a206e6577206f776e657220697320746865207a65726f206160448201526564647265737360d01b6064820152608401610976565b611b1a816133b7565b6001600160a01b0381166000908152600b60209081526040808320805482518185028101850190935280835260609492939192909184015b828210156117805760008481526020908190206040805161010081018252600886029092018054835260018101546001600160a01b03169383019390935260028084015491830191909152600383015460608301526004830154919291608084019160ff90911690811115612db557612db5613933565b6002811115612dc657612dc6613933565b815260200160058201805480602002602001604051908101604052809291908181526020018280548015612e2357602002820191906000526020600020905b81546001600160a01b03168152600190910190602001808311612e05575b5050505050815260200160068201805480602002602001604051908101604052809291908181526020018280548015612e7b57602002820191906000526020600020905b815481526020019060010190808311612e67575b5050505050815260200160078201805480602002602001604051908101604052809291908181526020018280548015612ed357602002820191906000526020600020905b815481526020019060010190808311612ebf575b50505050508152505081526020019060010190612d3e565b80546001019055565b6001600160a01b038416612f1a5760405162461bcd60e51b815260040161097690614520565b336000612f26856134e9565b90506000612f33856134e9565b90506000868152602081815260408083206001600160a01b038c16845290915290205485811015612f765760405162461bcd60e51b815260040161097690614565565b6000878152602081815260408083206001600160a01b038d8116855292528083208985039055908a16825281208054889290612fb39084906145af565b909155505060408051888152602081018890526001600160a01b03808b16928c821692918816917fc3d58168c5ae7397731d063d5bbf3d657854427343f4c083240f7aacaa2d0f62910160405180910390a4613013848a8a8a8a8a613534565b505050505050505050565b81518351146130805760405162461bcd60e51b815260206004820152602860248201527f455243313135353a2069647320616e6420616d6f756e7473206c656e677468206044820152670dad2e6dac2e8c6d60c31b6064820152608401610976565b6001600160a01b0384166130a65760405162461bcd60e51b815260040161097690614520565b3360005b845181101561318d5760008582815181106130c7576130c7614355565b6020026020010151905060008583815181106130e5576130e5614355565b602090810291909101810151600084815280835260408082206001600160a01b038e1683529093529190912054909150818110156131355760405162461bcd60e51b815260040161097690614565565b6000838152602081815260408083206001600160a01b038e8116855292528083208585039055908b168252812080548492906131729084906145af565b925050819055505050508061318690614381565b90506130aa565b50846001600160a01b0316866001600160a01b0316826001600160a01b03167f4a39dc06d4c0dbc64b70af90fd698a233a518aa5d07e595d983b8c0526c8f7fb87876040516131dd9291906145c2565b60405180910390a46131f381878787878761368f565b505050505050565b6003546001600160a01b0316331461154d5760405162461bcd60e51b815260206004820181905260248201527f4f776e61626c653a2063616c6c6572206973206e6f7420746865206f776e65726044820152606401610976565b6001600160a01b0384166132b55760405162461bcd60e51b815260206004820152602160248201527f455243313135353a206d696e7420746f20746865207a65726f206164647265736044820152607360f81b6064820152608401610976565b3360006132c1856134e9565b905060006132ce856134e9565b90506000868152602081815260408083206001600160a01b038b168452909152812080548792906133009084906145af565b909155505060408051878152602081018790526001600160a01b03808a1692600092918716917fc3d58168c5ae7397731d063d5bbf3d657854427343f4c083240f7aacaa2d0f62910160405180910390a461153683600089898989613534565b8054806133af5760405162461bcd60e51b815260206004820152601b60248201527f436f756e7465723a2064656372656d656e74206f766572666c6f7700000000006044820152606401610976565b600019019055565b600380546001600160a01b038381166001600160a01b0319831681179093556040519116919082907f8be0079c531659141344cd1fd0a4f28419497f9722a3daafe3b4186f6b6457e090600090a35050565b816001600160a01b0316836001600160a01b03160361347c5760405162461bcd60e51b815260206004820152602960248201527f455243313135353a2073657474696e6720617070726f76616c20737461747573604482015268103337b91039b2b63360b91b6064820152608401610976565b6001600160a01b03838116600081815260016020908152604080832094871680845294825291829020805460ff191686151590811790915591519182527f17307eab39ab6107e8899845ad3d59bd9653f200f220920489ca2b5937696c31910160405180910390a3505050565b6040805160018082528183019092526060916000919060208083019080368337019050509050828160008151811061352357613523614355565b602090810291909101015292915050565b6001600160a01b0384163b156131f35760405163f23a6e6160e01b81526001600160a01b0385169063f23a6e619061357890899089908890889088906004016145e7565b6020604051808303816000875af19250505080156135b3575060408051601f3d908101601f191682019092526135b09181019061462c565b60015b61365f576135bf614649565b806308c379a0036135f857506135d3614665565b806135de57506135fa565b8060405162461bcd60e51b81526004016109769190613920565b505b60405162461bcd60e51b815260206004820152603460248201527f455243313135353a207472616e7366657220746f206e6f6e2d455243313135356044820152732932b1b2b4bb32b91034b6b83632b6b2b73a32b960611b6064820152608401610976565b6001600160e01b0319811663f23a6e6160e01b146115365760405162461bcd60e51b8152600401610976906146ef565b6001600160a01b0384163b156131f35760405163bc197c8160e01b81526001600160a01b0385169063bc197c81906136d39089908990889088908890600401614737565b6020604051808303816000875af192505050801561370e575060408051601f3d908101601f1916820190925261370b9181019061462c565b60015b61371a576135bf614649565b6001600160e01b0319811663bc197c8160e01b146115365760405162461bcd60e51b8152600401610976906146ef565b82805482825590600052602060002090810192821561379f579160200282015b8281111561379f57825182546001600160a01b0319166001600160a01b0390911617825560209092019160019091019061376a565b506137ab9291506137ea565b5090565b82805482825590600052602060002090810192821561379f579160200282015b8281111561379f5782518255916020019190600101906137cf565b5b808211156137ab57600081556001016137eb565b80356001600160a01b038116811461381657600080fd5b919050565b6000806040838503121561382e57600080fd5b613837836137ff565b946020939093013593505050565b6001600160e01b031981168114611b1a57600080fd5b60006020828403121561386d57600080fd5b813561387881613845565b9392505050565b6000806000806080858703121561389557600080fd5b61389e856137ff565b93506138ac602086016137ff565b93969395505050506040820135916060013590565b6000602082840312156138d357600080fd5b5035919050565b6000815180845260005b81811015613900576020818501810151868301820152016138e4565b506000602082860101526020601f19601f83011685010191505092915050565b60208152600061387860208301846138da565b634e487b7160e01b600052602160045260246000fd5b6003811061396757634e487b7160e01b600052602160045260246000fd5b9052565b8581526001600160a01b0385166020820152604081018490526060810183905260a0810161399c6080830184613949565b9695505050505050565b8481526080602082015260006139bf60808301866138da565b6040830194909452506060015292915050565b634e487b7160e01b600052604160045260246000fd5b601f8201601f1916810167ffffffffffffffff81118282101715613a0e57613a0e6139d2565b6040525050565b600067ffffffffffffffff821115613a2f57613a2f6139d2565b5060051b60200190565b600082601f830112613a4a57600080fd5b81356020613a5782613a15565b604051613a6482826139e8565b83815260059390931b8501820192828101915086841115613a8457600080fd5b8286015b84811015613aa657613a99816137ff565b8352918301918301613a88565b509695505050505050565b600082601f830112613ac257600080fd5b81356020613acf82613a15565b604051613adc82826139e8565b83815260059390931b8501820192828101915086841115613afc57600080fd5b8286015b84811015613aa65780358352918301918301613b00565b600080600080600060a08688031215613b2f57600080fd5b85359450602086013567ffffffffffffffff80821115613b4e57600080fd5b613b5a89838a01613a39565b9550604088013594506060880135915080821115613b7757600080fd5b613b8389838a01613ab1565b93506080880135915080821115613b9957600080fd5b50613ba688828901613ab1565b9150509295509295909350565b602081016109a28284613949565b600082601f830112613bd257600080fd5b813567ffffffffffffffff811115613bec57613bec6139d2565b604051613c03601f8301601f1916602001826139e8565b818152846020838601011115613c1857600080fd5b816020850160208301376000918101602001919091529392505050565b600080600080600060a08688031215613c4d57600080fd5b613c56866137ff565b9450613c64602087016137ff565b9350604086013567ffffffffffffffff80821115613c8157600080fd5b613c8d89838a01613ab1565b94506060880135915080821115613ca357600080fd5b613caf89838a01613ab1565b93506080880135915080821115613cc557600080fd5b50613ba688828901613bc1565b600060208284031215613ce457600080fd5b613878826137ff565b600081518084526020808501945080840160005b83811015613d265781516001600160a01b031687529582019590820190600101613d01565b509495945050505050565b600081518084526020808501945080840160005b83811015613d2657815187529582019590820190600101613d45565b60006020808301818452808551808352604092508286019150828160051b87010184880160005b83811015613e3f57603f19898403018552815180518452878101516001600160a01b0316888501528681015187850152606080820151908501526080808201516101009190613dd982880182613949565b505060a0808301518282880152613df283880182613ced565b9250505060c08083015186830382880152613e0d8382613d31565b9250505060e08083015192508582038187015250613e2b8183613d31565b968901969450505090860190600101613d88565b509098975050505050505050565b6001600160a01b038816815260e060208201819052600090613e71908301896138da565b8281036040840152613e8381896138da565b90508660608401528281036080840152613e9d81876138da565b905082810360a0840152613eb181866138da565b905082810360c0840152613ec581856138da565b9a9950505050505050505050565b60008060408385031215613ee657600080fd5b823567ffffffffffffffff80821115613efe57600080fd5b613f0a86838701613a39565b93506020850135915080821115613f2057600080fd5b50613f2d85828601613ab1565b9150509250929050565b6020815260006138786020830184613d31565b60006020808301818452808551808352604092508286019150828160051b87010184880160005b83811015613e3f57603f19898403018552815160808151855288820151818a870152613f9f828701826138da565b838a0151878b0152606093840151939096019290925250509386019390860190600101613f71565b600080600060608486031215613fdc57600080fd5b8335925060208401359150604084013567ffffffffffffffff81111561400157600080fd5b61400d86828701613bc1565b9150509250925092565b602080825282516001600160a01b03168282015282015160e060408301526000906140466101008401826138da565b90506040840151601f198085840301606086015261406483836138da565b92506060860151608086015260808601519150808584030160a086015261408b83836138da565b925060a08601519150808584030160c08601526140a883836138da565b925060c08601519150808584030160e0860152506140c682826138da565b95945050505050565b600080600080600080600060e0888a0312156140ea57600080fd5b6140f3886137ff565b9650602088013567ffffffffffffffff8082111561411057600080fd5b61411c8b838c01613bc1565b975060408a013591508082111561413257600080fd5b61413e8b838c01613bc1565b965060608a0135955060808a013591508082111561415b57600080fd5b6141678b838c01613bc1565b945060a08a013591508082111561417d57600080fd5b6141898b838c01613bc1565b935060c08a013591508082111561419f57600080fd5b506141ac8a828b01613bc1565b91505092959891949750929550565b600080604083850312156141ce57600080fd5b6141d7836137ff565b9150602083013580151581146141ec57600080fd5b809150509250929050565b60008060006060848603121561420c57600080fd5b505081359360208301359350604090920135919050565b6000806040838503121561423657600080fd5b61423f836137ff565b915061424d602084016137ff565b90509250929050565b600080600080600060a0868803121561426e57600080fd5b614277866137ff565b9450614285602087016137ff565b93506040860135925060608601359150608086013567ffffffffffffffff8111156142af57600080fd5b613ba688828901613bc1565b600181811c908216806142cf57607f821691505b6020821081036142ef57634e487b7160e01b600052602260045260246000fd5b50919050565b86815260018060a01b038616602082015284604082015260c06060820152600061432260c0830186613ced565b82810360808401526143348186613d31565b905082810360a08401526143488185613d31565b9998505050505050505050565b634e487b7160e01b600052603260045260246000fd5b634e487b7160e01b600052601160045260246000fd5b6000600182016143935761439361436b565b5060010190565b6020808252602e908201527f455243313135353a2063616c6c6572206973206e6f7420746f6b656e206f776e60408201526d195c881bdc88185c1c1c9bdd995960921b606082015260800190565b601f82111561442e57600081815260208120601f850160051c8101602086101561440f5750805b601f850160051c820191505b818110156131f35782815560010161441b565b505050565b815167ffffffffffffffff81111561444d5761444d6139d2565b6144618161445b84546142bb565b846143e8565b602080601f831160018114614496576000841561447e5750858301515b600019600386901b1c1916600185901b1785556131f3565b600085815260208120601f198616915b828110156144c5578886015182559484019460019091019084016144a6565b50858210156144e35787850151600019600388901b60f8161c191681555b5050505050600190811b01905550565b60018060a01b038516815283602082015282604082015260806060820152600061399c60808301846138da565b60208082526025908201527f455243313135353a207472616e7366657220746f20746865207a65726f206164604082015264647265737360d81b606082015260800190565b6020808252602a908201527f455243313135353a20696e73756666696369656e742062616c616e636520666f60408201526939103a3930b739b332b960b11b606082015260800190565b808201808211156109a2576109a261436b565b6040815260006145d56040830185613d31565b82810360208401526140c68185613d31565b6001600160a01b03868116825285166020820152604081018490526060810183905260a060808201819052600090614621908301846138da565b979650505050505050565b60006020828403121561463e57600080fd5b815161387881613845565b600060033d11156146625760046000803e5060005160e01c5b90565b600060443d10156146735790565b6040516003193d81016004833e81513d67ffffffffffffffff81602484011181841117156146a357505050505090565b82850191508151818111156146bb5750505050505090565b843d87010160208285010111156146d55750505050505090565b6146e4602082860101876139e8565b509095945050505050565b60208082526028908201527f455243313135353a204552433131353552656365697665722072656a656374656040820152676420746f6b656e7360c01b606082015260800190565b6001600160a01b0386811682528516602082015260a06040820181905260009061476390830186613d31565b82810360608401526147758186613d31565b9050828103608084015261478981856138da565b9897505050505050505056fea2646970667358221220ab9250594b68ebe97292be31d14062bc3946e557c3387910da6880d87d06866d64736f6c63430008110033",
  "linkReferences": {},
  "deployedLinkReferences": {}
}