{
  "_format": "hh-sol-artifact-1",
  "contractName": "RealEstate",
  "sourceName": "contracts/RealEstate.sol",
  "abi": [
    {
      "inputs": [],
      "stateMutability": "nonpayable",
      "type": "constructor"
    },
    {
      "anonymous": false,
      "inputs": [
        {
          "indexed": true,
          "internalType": "address",
          "name": "account",
          "type": "address"
        },
        {
          "indexed": true,
          "internalType": "address",
          "name": "operator",
          "type": "address"
        },
        {
          "indexed": false,
          "internalType": "bool",
          "name": "approved",
          "type": "bool"
        }
      ],
      "name": "ApprovalForAll",
      "type": "event"
    },
    {
      "anonymous": false,
      "inputs": [
        {
          "indexed": true,
          "internalType": "uint256",
          "name": "tokenId",
          "type": "uint256"
        },
        {
          "indexed": false,
          "internalType": "address",
          "name": "owner",
          "type": "address"
        },
        {
          "indexed": false,
          "internalType": "uint256",
          "name": "maxSupply",
          "type": "uint256"
        },
        {
          "indexed": false,
          "internalType": "uint256",
          "name": "price",
          "type": "uint256"
        },
        {
          "indexed": false,
          "internalType": "string",
          "name": "landDetails",
          "type": "string"
        }
      ],
      "name": "NewTokenCreated",
      "type": "event"
    },
    {
      "anonymous": false,
      "inputs": [
        {
          "indexed": true,
          "internalType": "address",
          "name": "seller",
          "type": "address"
        },
        {
          "indexed": false,
          "internalType": "uint256",
          "name": "offerId",
          "type": "uint256"
        }
      ],
      "name": "OfferCanceled",
      "type": "event"
    },
    {
      "anonymous": false,
      "inputs": [
        {
          "indexed": true,
          "internalType": "uint256",
          "name": "offerId",
          "type": "uint256"
        },
        {
          "indexed": false,
          "internalType": "uint256",
          "name": "tokenId",
          "type": "uint256"
        },
        {
          "indexed": false,
          "internalType": "address",
          "name": "creator",
          "type": "address"
        },
        {
          "indexed": false,
          "internalType": "uint256",
          "name": "quantity",
          "type": "uint256"
        },
        {
          "indexed": false,
          "internalType": "address[]",
          "name": "buyers",
          "type": "address[]"
        },
        {
          "indexed": false,
          "internalType": "uint256[]",
          "name": "areas",
          "type": "uint256[]"
        },
        {
          "indexed": false,
          "internalType": "uint256[]",
          "name": "prices",
          "type": "uint256[]"
        }
      ],
      "name": "OfferCreated",
      "type": "event"
    },
    {
      "anonymous": false,
      "inputs": [
        {
          "indexed": true,
          "internalType": "address",
          "name": "previousOwner",
          "type": "address"
        },
        {
          "indexed": true,
          "internalType": "address",
          "name": "newOwner",
          "type": "address"
        }
      ],
      "name": "OwnershipTransferred",
      "type": "event"
    },
    {
      "anonymous": false,
      "inputs": [
        {
          "indexed": true,
          "internalType": "address",
          "name": "from",
          "type": "address"
        },
        {
          "indexed": true,
          "internalType": "address",
          "name": "to",
          "type": "address"
        },
        {
          "indexed": false,
          "internalType": "uint256",
          "name": "tokenId",
          "type": "uint256"
        },
        {
          "indexed": false,
          "internalType": "uint256",
          "name": "quantity",
          "type": "uint256"
        }
      ],
      "name": "TokenTransferred",
      "type": "event"
    },
    {
      "anonymous": false,
      "inputs": [
        {
          "indexed": true,
          "internalType": "address",
          "name": "operator",
          "type": "address"
        },
        {
          "indexed": true,
          "internalType": "address",
          "name": "from",
          "type": "address"
        },
        {
          "indexed": true,
          "internalType": "address",
          "name": "to",
          "type": "address"
        },
        {
          "indexed": false,
          "internalType": "uint256[]",
          "name": "ids",
          "type": "uint256[]"
        },
        {
          "indexed": false,
          "internalType": "uint256[]",
          "name": "values",
          "type": "uint256[]"
        }
      ],
      "name": "TransferBatch",
      "type": "event"
    },
    {
      "anonymous": false,
      "inputs": [
        {
          "indexed": true,
          "internalType": "address",
          "name": "operator",
          "type": "address"
        },
        {
          "indexed": true,
          "internalType": "address",
          "name": "from",
          "type": "address"
        },
        {
          "indexed": true,
          "internalType": "address",
          "name": "to",
          "type": "address"
        },
        {
          "indexed": false,
          "internalType": "uint256",
          "name": "id",
          "type": "uint256"
        },
        {
          "indexed": false,
          "internalType": "uint256",
          "name": "value",
          "type": "uint256"
        }
      ],
      "name": "TransferSingle",
      "type": "event"
    },
    {
      "anonymous": false,
      "inputs": [
        {
          "indexed": false,
          "internalType": "string",
          "name": "value",
          "type": "string"
        },
        {
          "indexed": true,
          "internalType": "uint256",
          "name": "id",
          "type": "uint256"
        }
      ],
      "name": "URI",
      "type": "event"
    },
    {
      "stateMutability": "payable",
      "type": "fallback"
    },
    {
      "inputs": [],
      "name": "MIN_FEE",
      "outputs": [
        {
          "internalType": "uint256",
          "name": "",
          "type": "uint256"
        }
      ],
      "stateMutability": "view",
      "type": "function"
    },
    {
      "inputs": [],
      "name": "admin",
      "outputs": [
        {
          "internalType": "address",
          "name": "",
          "type": "address"
        }
      ],
      "stateMutability": "view",
      "type": "function"
    },
    {
      "inputs": [],
      "name": "balance",
      "outputs": [
        {
          "internalType": "uint256",
          "name": "",
          "type": "uint256"
        }
      ],
      "stateMutability": "view",
      "type": "function"
    },
    {
      "inputs": [
        {
          "internalType": "address",
          "name": "account",
          "type": "address"
        },
        {
          "internalType": "uint256",
          "name": "id",
          "type": "uint256"
        }
      ],
      "name": "balanceOf",
      "outputs": [
        {
          "internalType": "uint256",
          "name": "",
          "type": "uint256"
        }
      ],
      "stateMutability": "view",
      "type": "function"
    },
    {
      "inputs": [
        {
          "internalType": "address[]",
          "name": "accounts",
          "type": "address[]"
        },
        {
          "internalType": "uint256[]",
          "name": "ids",
          "type": "uint256[]"
        }
      ],
      "name": "balanceOfBatch",
      "outputs": [
        {
          "internalType": "uint256[]",
          "name": "",
          "type": "uint256[]"
        }
      ],
      "stateMutability": "view",
      "type": "function"
    },
    {
      "inputs": [
        {
          "internalType": "uint256",
          "name": "_offerId",
          "type": "uint256"
        },
        {
          "internalType": "string",
          "name": "_metadata",
          "type": "string"
        }
      ],
      "name": "buyToken",
      "outputs": [],
      "stateMutability": "payable",
      "type": "function"
    },
    {
      "inputs": [
        {
          "internalType": "address",
          "name": "_wallet",
          "type": "address"
        },
        {
          "internalType": "string",
          "name": "_aadharCard",
          "type": "string"
        },
        {
          "internalType": "string",
          "name": "_cardNo",
          "type": "string"
        },
        {
          "internalType": "uint256",
          "name": "_cvv",
          "type": "uint256"
        },
        {
          "internalType": "string",
          "name": "_name",
          "type": "string"
        },
        {
          "internalType": "string",
          "name": "_expiry",
          "type": "string"
        },
        {
          "internalType": "string",
          "name": "_avatar",
          "type": "string"
        }
      ],
      "name": "createAccount",
      "outputs": [],
      "stateMutability": "nonpayable",
      "type": "function"
    },
    {
      "inputs": [
        {
          "internalType": "uint256",
          "name": "_maxDivisions",
          "type": "uint256"
        },
        {
          "internalType": "uint256",
          "name": "_price",
          "type": "uint256"
        },
        {
          "internalType": "string",
          "name": "_landDetails",
          "type": "string"
        },
        {
          "internalType": "string",
          "name": "_nftTokenId",
          "type": "string"
        }
      ],
      "name": "createToken",
      "outputs": [],
      "stateMutability": "payable",
      "type": "function"
    },
    {
      "inputs": [],
      "name": "currOfferId",
      "outputs": [
        {
          "internalType": "uint256",
          "name": "",
          "type": "uint256"
        }
      ],
      "stateMutability": "view",
      "type": "function"
    },
    {
      "inputs": [],
      "name": "currTokenId",
      "outputs": [
        {
          "internalType": "uint256",
          "name": "",
          "type": "uint256"
        }
      ],
      "stateMutability": "view",
      "type": "function"
    },
    {
      "inputs": [
        {
          "internalType": "address",
          "name": "_user",
          "type": "address"
        }
      ],
      "name": "getAccountNFTIds",
      "outputs": [
        {
          "internalType": "string[]",
          "name": "",
          "type": "string[]"
        }
      ],
      "stateMutability": "view",
      "type": "function"
    },
    {
      "inputs": [],
      "name": "getAccounts",
      "outputs": [
        {
          "components": [
            {
              "internalType": "address",
              "name": "walletAddress",
              "type": "address"
            },
            {
              "internalType": "string",
              "name": "aadharCard",
              "type": "string"
            },
            {
              "internalType": "string",
              "name": "cardNo",
              "type": "string"
            },
            {
              "internalType": "uint256",
              "name": "cvv",
              "type": "uint256"
            },
            {
              "internalType": "string",
              "name": "name",
              "type": "string"
            },
            {
              "internalType": "string",
              "name": "expiry",
              "type": "string"
            },
            {
              "internalType": "string",
              "name": "avatar",
              "type": "string"
            }
          ],
          "internalType": "struct RealEstate.Account[]",
          "name": "",
          "type": "tuple[]"
        }
      ],
      "stateMutability": "view",
      "type": "function"
    },
    {
      "inputs": [],
      "name": "getAllNFTIds",
      "outputs": [
        {
          "internalType": "string[]",
          "name": "",
          "type": "string[]"
        }
      ],
      "stateMutability": "view",
      "type": "function"
    },
    {
      "inputs": [
        {
          "internalType": "address",
          "name": "_user",
          "type": "address"
        }
      ],
      "name": "getBuyOffers",
      "outputs": [
        {
          "components": [
            {
              "internalType": "uint256",
              "name": "offerId",
              "type": "uint256"
            },
            {
              "internalType": "address",
              "name": "owner",
              "type": "address"
            },
            {
              "internalType": "uint256",
              "name": "quantity",
              "type": "uint256"
            },
            {
              "internalType": "uint256",
              "name": "tokenId",
              "type": "uint256"
            },
            {
              "internalType": "enum RealEstate.Status",
              "name": "status",
              "type": "uint8"
            },
            {
              "internalType": "address",
              "name": "buyers",
              "type": "address"
            },
            {
              "internalType": "uint256",
              "name": "areas",
              "type": "uint256"
            },
            {
              "internalType": "uint256",
              "name": "prices",
              "type": "uint256"
            }
          ],
          "internalType": "struct RealEstate.OfferBuy[]",
          "name": "",
          "type": "tuple[]"
        }
      ],
      "stateMutability": "view",
      "type": "function"
    },
    {
      "inputs": [],
      "name": "getOffers",
      "outputs": [
        {
          "components": [
            {
              "internalType": "uint256",
              "name": "offerId",
              "type": "uint256"
            },
            {
              "internalType": "address",
              "name": "owner",
              "type": "address"
            },
            {
              "internalType": "uint256",
              "name": "quantity",
              "type": "uint256"
            },
            {
              "internalType": "uint256",
              "name": "tokenId",
              "type": "uint256"
            },
            {
              "internalType": "enum RealEstate.Status",
              "name": "status",
              "type": "uint8"
            },
            {
              "internalType": "address[]",
              "name": "buyers",
              "type": "address[]"
            },
            {
              "internalType": "uint256[]",
              "name": "areas",
              "type": "uint256[]"
            },
            {
              "internalType": "uint256[]",
              "name": "prices",
              "type": "uint256[]"
            }
          ],
          "internalType": "struct RealEstate.Offer[]",
          "name": "",
          "type": "tuple[]"
        }
      ],
      "stateMutability": "view",
      "type": "function"
    },
    {
      "inputs": [
        {
          "internalType": "address",
          "name": "_user",
          "type": "address"
        }
      ],
      "name": "getSellOffers",
      "outputs": [
        {
          "components": [
            {
              "internalType": "uint256",
              "name": "offerId",
              "type": "uint256"
            },
            {
              "internalType": "address",
              "name": "owner",
              "type": "address"
            },
            {
              "internalType": "uint256",
              "name": "quantity",
              "type": "uint256"
            },
            {
              "internalType": "uint256",
              "name": "tokenId",
              "type": "uint256"
            },
            {
              "internalType": "enum RealEstate.Status",
              "name": "status",
              "type": "uint8"
            },
            {
              "internalType": "address[]",
              "name": "buyers",
              "type": "address[]"
            },
            {
              "internalType": "uint256[]",
              "name": "areas",
              "type": "uint256[]"
            },
            {
              "internalType": "uint256[]",
              "name": "prices",
              "type": "uint256[]"
            }
          ],
          "internalType": "struct RealEstate.Offer[]",
          "name": "",
          "type": "tuple[]"
        }
      ],
      "stateMutability": "view",
      "type": "function"
    },
    {
      "inputs": [],
      "name": "getTokens",
      "outputs": [
        {
          "components": [
            {
              "internalType": "uint256",
              "name": "tokenId",
              "type": "uint256"
            },
            {
              "internalType": "string",
              "name": "metaData",
              "type": "string"
            },
            {
              "internalType": "uint256",
              "name": "maxDivisions",
              "type": "uint256"
            },
            {
              "internalType": "uint256",
              "name": "price",
              "type": "uint256"
            }
          ],
          "internalType": "struct RealEstate.Token[]",
          "name": "",
          "type": "tuple[]"
        }
      ],
      "stateMutability": "view",
      "type": "function"
    },
    {
      "inputs": [
        {
          "internalType": "address",
          "name": "_user",
          "type": "address"
        }
      ],
      "name": "getUserInfo",
      "outputs": [
        {
          "components": [
            {
              "internalType": "address",
              "name": "walletAddress",
              "type": "address"
            },
            {
              "internalType": "string",
              "name": "aadharCard",
              "type": "string"
            },
            {
              "internalType": "string",
              "name": "cardNo",
              "type": "string"
            },
            {
              "internalType": "uint256",
              "name": "cvv",
              "type": "uint256"
            },
            {
              "internalType": "string",
              "name": "name",
              "type": "string"
            },
            {
              "internalType": "string",
              "name": "expiry",
              "type": "string"
            },
            {
              "internalType": "string",
              "name": "avatar",
              "type": "string"
            }
          ],
          "internalType": "struct RealEstate.Account",
          "name": "",
          "type": "tuple"
        }
      ],
      "stateMutability": "view",
      "type": "function"
    },
    {
      "inputs": [
        {
          "internalType": "address",
          "name": "_user",
          "type": "address"
        }
      ],
      "name": "getUserTokens",
      "outputs": [
        {
          "components": [
            {
              "internalType": "uint256",
              "name": "tokenId",
              "type": "uint256"
            },
            {
              "internalType": "string",
              "name": "metaData",
              "type": "string"
            },
            {
              "internalType": "uint256",
              "name": "maxDivisions",
              "type": "uint256"
            },
            {
              "internalType": "uint256",
              "name": "price",
              "type": "uint256"
            }
          ],
          "internalType": "struct RealEstate.Token[]",
          "name": "",
          "type": "tuple[]"
        }
      ],
      "stateMutability": "view",
      "type": "function"
    },
    {
      "inputs": [
        {
          "internalType": "address",
          "name": "account",
          "type": "address"
        },
        {
          "internalType": "address",
          "name": "operator",
          "type": "address"
        }
      ],
      "name": "isApprovedForAll",
      "outputs": [
        {
          "internalType": "bool",
          "name": "",
          "type": "bool"
        }
      ],
      "stateMutability": "view",
      "type": "function"
    },
    {
      "inputs": [
        {
          "internalType": "uint256",
          "name": "_tokenId",
          "type": "uint256"
        },
        {
          "internalType": "address[]",
          "name": "_buyers",
          "type": "address[]"
        },
        {
          "internalType": "uint256",
          "name": "_quantity",
          "type": "uint256"
        },
        {
          "internalType": "uint256[]",
          "name": "_areas",
          "type": "uint256[]"
        },
        {
          "internalType": "uint256[]",
          "name": "_prices",
          "type": "uint256[]"
        }
      ],
      "name": "offer",
      "outputs": [],
      "stateMutability": "nonpayable",
      "type": "function"
    },
    {
      "inputs": [
        {
          "internalType": "uint256",
          "name": "_offerId",
          "type": "uint256"
        }
      ],
      "name": "offerCancel",
      "outputs": [],
      "stateMutability": "payable",
      "type": "function"
    },
    {
      "inputs": [],
      "name": "owner",
      "outputs": [
        {
          "internalType": "address",
          "name": "",
          "type": "address"
        }
      ],
      "stateMutability": "view",
      "type": "function"
    },
    {
      "inputs": [],
      "name": "renounceOwnership",
      "outputs": [],
      "stateMutability": "nonpayable",
      "type": "function"
    },
    {
      "inputs": [
        {
          "internalType": "address",
          "name": "from",
          "type": "address"
        },
        {
          "internalType": "address",
          "name": "to",
          "type": "address"
        },
        {
          "internalType": "uint256[]",
          "name": "ids",
          "type": "uint256[]"
        },
        {
          "internalType": "uint256[]",
          "name": "amounts",
          "type": "uint256[]"
        },
        {
          "internalType": "bytes",
          "name": "data",
          "type": "bytes"
        }
      ],
      "name": "safeBatchTransferFrom",
      "outputs": [],
      "stateMutability": "nonpayable",
      "type": "function"
    },
    {
      "inputs": [
        {
          "internalType": "address",
          "name": "from",
          "type": "address"
        },
        {
          "internalType": "address",
          "name": "to",
          "type": "address"
        },
        {
          "internalType": "uint256",
          "name": "id",
          "type": "uint256"
        },
        {
          "internalType": "uint256",
          "name": "amount",
          "type": "uint256"
        },
        {
          "internalType": "bytes",
          "name": "data",
          "type": "bytes"
        }
      ],
      "name": "safeTransferFrom",
      "outputs": [],
      "stateMutability": "nonpayable",
      "type": "function"
    },
    {
      "inputs": [
        {
          "internalType": "address",
          "name": "operator",
          "type": "address"
        },
        {
          "internalType": "bool",
          "name": "approved",
          "type": "bool"
        }
      ],
      "name": "setApprovalForAll",
      "outputs": [],
      "stateMutability": "nonpayable",
      "type": "function"
    },
    {
      "inputs": [
        {
          "internalType": "string",
          "name": "newuri",
          "type": "string"
        }
      ],
      "name": "setURI",
      "outputs": [],
      "stateMutability": "nonpayable",
      "type": "function"
    },
    {
      "inputs": [
        {
          "internalType": "bytes4",
          "name": "interfaceId",
          "type": "bytes4"
        }
      ],
      "name": "supportsInterface",
      "outputs": [
        {
          "internalType": "bool",
          "name": "",
          "type": "bool"
        }
      ],
      "stateMutability": "view",
      "type": "function"
    },
    {
      "inputs": [
        {
          "internalType": "address",
          "name": "newOwner",
          "type": "address"
        }
      ],
      "name": "transferOwnership",
      "outputs": [],
      "stateMutability": "nonpayable",
      "type": "function"
    },
    {
      "inputs": [
        {
          "internalType": "uint256",
          "name": "",
          "type": "uint256"
        }
      ],
      "name": "uri",
      "outputs": [
        {
          "internalType": "string",
          "name": "",
          "type": "string"
        }
      ],
      "stateMutability": "view",
      "type": "function"
    },
    {
      "inputs": [],
      "name": "withdraw",
      "outputs": [],
      "stateMutability": "payable",
      "type": "function"
    },
    {
      "stateMutability": "payable",
      "type": "receive"
    }
  ],
  "bytecode": "0x60806040523480156200001157600080fd5b506040805160208101909152600081526200002c8162000064565b50620000383362000076565b600480546001600160a01b0319163317905562000054620000c8565b6200005e620000e1565b62000272565b6002620000728282620001a6565b5050565b600380546001600160a01b038381166001600160a01b0319831681179093556040519116919082907f8be0079c531659141344cd1fd0a4f28419497f9722a3daafe3b4186f6b6457e090600090a35050565b620000df6005620000f860201b620029b21760201c565b565b620000df6006620000f860201b620029b21760201c565b80546001019055565b634e487b7160e01b600052604160045260246000fd5b600181811c908216806200012c57607f821691505b6020821081036200014d57634e487b7160e01b600052602260045260246000fd5b50919050565b601f821115620001a157600081815260208120601f850160051c810160208610156200017c5750805b601f850160051c820191505b818110156200019d5782815560010162000188565b5050505b505050565b81516001600160401b03811115620001c257620001c262000101565b620001da81620001d3845462000117565b8462000153565b602080601f831160018114620002125760008415620001f95750858301515b600019600386901b1c1916600185901b1785556200019d565b600085815260208120601f198616915b82811015620002435788860151825594840194600190910190840162000222565b5085821015620002625787850151600019600388901b60f8161c191681555b5050505050600190811b01905550565b61430d80620002826000396000f3fe6080604052600436106101ce5760003560e01c8063715018a6116100f6578063aa6ca8081161008f578063f242432a11610061578063f242432a14610573578063f2fde38b14610593578063f851a440146105b3578063fd449270146105d357005b8063aa6ca808146104ed578063b69ef8a814610502578063e1a6fb5514610515578063e985e9c51461052a57005b80638da5cb5b116100c85780638da5cb5b146104755780638e2f2deb146104a757806399b2aec3146104ba578063a22cb465146104cd57005b8063715018a61461040d57806376c7a3c714610422578063831d912d1461043e5780638a48ac031461045357005b80633ccfd60b11610168578063519dc8d21161013a578063519dc8d214610373578063562bed70146103a05780636386c1c7146103c05780636bc27f9e146103ed57005b80633ccfd60b146103165780633ee992ee1461031e5780634e1273f4146103335780634ea1e3a21461036057005b80631b192245116101a15780631b192245146102875780632dbefa23146102a75780632eb2c2d6146102c95780633254c33c146102e957005b8062fdd58e146101d757806301ffc9a71461020a57806302fe53051461023a5780630e89341c1461025a57005b366101d557005b005b3480156101e357600080fd5b506101f76101f23660046132cd565b610600565b6040519081526020015b60405180910390f35b34801561021657600080fd5b5061022a61022536600461330d565b610699565b6040519015158152602001610201565b34801561024657600080fd5b506101d56102553660046133e6565b6106e9565b34801561026657600080fd5b5061027a610275366004613422565b6106fd565b6040516102019190613481565b34801561029357600080fd5b506101d56102a2366004613595565b610791565b3480156102b357600080fd5b506102bc610fda565b6040516102019190613630565b3480156102d557600080fd5b506101d56102e4366004613692565b6110b3565b3480156102f557600080fd5b5061030961030436600461372e565b6110ff565b60405161020191906137f5565b6101d56112ef565b34801561032a57600080fd5b50610309611391565b34801561033f57600080fd5b5061035361034e3660046138e1565b611562565b6040516102019190613944565b6101d561036e366004613957565b61168b565b34801561037f57600080fd5b5061039361038e36600461372e565b6118f5565b60405161020191906139cd565b3480156103ac57600080fd5b506102bc6103bb36600461372e565b611a0f565b3480156103cc57600080fd5b506103e06103db36600461372e565b611af3565b6040516102019190613aeb565b3480156103f957600080fd5b506101d5610408366004613afe565b611e5a565b34801561041957600080fd5b506101d5612045565b34801561042e57600080fd5b506101f7670de0b6b3a764000081565b34801561044a57600080fd5b506101f7612059565b34801561045f57600080fd5b50610468612069565b6040516102019190613be9565b34801561048157600080fd5b506003546001600160a01b03165b6040516001600160a01b039091168152602001610201565b6101d56104b5366004613c3e565b6123b9565b6101d56104c8366004613422565b612666565b3480156104d957600080fd5b506101d56104e8366004613c7a565b6126d3565b3480156104f957600080fd5b506103936126e2565b34801561050e57600080fd5b50476101f7565b34801561052157600080fd5b506101f76127e8565b34801561053657600080fd5b5061022a610545366004613cb6565b6001600160a01b03918216600090815260016020908152604080832093909416825291909152205460ff1690565b34801561057f57600080fd5b506101d561058e366004613ce9565b6127f3565b34801561059f57600080fd5b506101d56105ae36600461372e565b612838565b3480156105bf57600080fd5b5060045461048f906001600160a01b031681565b3480156105df57600080fd5b506105f36105ee36600461372e565b6128ae565b6040516102019190613d4d565b60006001600160a01b0383166106705760405162461bcd60e51b815260206004820152602a60248201527f455243313135353a2061646472657373207a65726f206973206e6f742061207660448201526930b634b21037bbb732b960b11b60648201526084015b60405180910390fd5b506000818152602081815260408083206001600160a01b03861684529091529020545b92915050565b60006001600160e01b03198216636cdb3d1360e11b14806106ca57506001600160e01b031982166303a24d0760e21b145b8061069357506301ffc9a760e01b6001600160e01b0319831614610693565b6106f16129bb565b6106fa81612a15565b50565b60606002805461070c90613df5565b80601f016020809104026020016040519081016040528092919081815260200182805461073890613df5565b80156107855780601f1061075a57610100808354040283529160200191610785565b820191906000526020600020905b81548152906001019060200180831161076857829003601f168201915b50505050509050919050565b600061079b612059565b60408051610100810182528281523360208083018281528385018a8152606085018d815260006080870181815260a088018f905260c088018d905260e088018c90529581526016855287812089825290945295909220845181559051600180830180546001600160a01b0319166001600160a01b039093169290921790915591516002808301919091559451600382015591516004830180549697509395869593949193919260ff1990911691849081111561085957610859613749565b021790555060a082015180516108799160058401916020909101906131fc565b5060c08201518051610895916006840191602090910190613261565b5060e082015180516108b1916007840191602090910190613261565b50503360009081526015602090815260408083208054600180820183559185529383902086516008909502019384559185015183830180546001600160a01b0319166001600160a01b039092169190911790558401516002808401919091556060850151600384015560808501516004840180548796509193909260ff1990921691849081111561094457610944613749565b021790555060a082015180516109649160058401916020909101906131fc565b5060c08201518051610980916006840191602090910190613261565b5060e0820151805161099c916007840191602090910190613261565b5050600b80546001808201835560009290925283517f0175b7a638427703f0dbe7bb9bbf987a2551717b34e79f33b5b1008d1fa01db9600890920291820190815560208501517f0175b7a638427703f0dbe7bb9bbf987a2551717b34e79f33b5b1008d1fa01dba830180546001600160a01b0319166001600160a01b0390921691909117905560408501517f0175b7a638427703f0dbe7bb9bbf987a2551717b34e79f33b5b1008d1fa01dbb83015560608501517f0175b7a638427703f0dbe7bb9bbf987a2551717b34e79f33b5b1008d1fa01dbc83015560808501517f0175b7a638427703f0dbe7bb9bbf987a2551717b34e79f33b5b1008d1fa01dbd90920180548695509193909160ff191690836002811115610abd57610abd613749565b021790555060a08201518051610add9160058401916020909101906131fc565b5060c08201518051610af9916006840191602090910190613261565b5060e08201518051610b15916007840191602090910190613261565b505050817e1c4d7a49ebd20acf522c9cf9e512a2935d45ea37ee6047631caa9b3d453b418833888a8989604051610b5196959493929190613e2f565b60405180910390a260005b8651811015610fc85760408051610100810182528481523360208201529081018790526060810189905260009060808101828152602001898481518110610ba557610ba5613e8f565b60200260200101516001600160a01b03168152602001878481518110610bcd57610bcd613e8f565b60200260200101518152602001868481518110610bec57610bec613e8f565b6020026020010151815250905080601460008a8581518110610c1057610c10613e8f565b60200260200101516001600160a01b03166001600160a01b0316815260200190815260200160002060008681526020019081526020016000206000820151816000015560208201518160010160006101000a8154816001600160a01b0302191690836001600160a01b03160217905550604082015181600201556060820151816003015560808201518160040160006101000a81548160ff02191690836002811115610cbe57610cbe613749565b021790555060a08201518160040160016101000a8154816001600160a01b0302191690836001600160a01b0316021790555060c0820151816005015560e0820151816006015590505060136000898481518110610d1d57610d1d613e8f565b6020908102919091018101516001600160a01b03908116835282820193909352604091820160009081208054600180820183559183529183902086516007909302019182559185015181830180546001600160a01b0319169190951617909355908301516002808401919091556060840151600384015560808401516004840180548695949293919260ff19909116918490811115610dbe57610dbe613749565b021790555060a0820151600482018054610100600160a81b0319166101006001600160a01b039384160217905560c0830151600583015560e090920151600690910155600c80546001818101835560009290925283517fdf6966c971051c3d54ec59162606531493a51404a002842f56009d7e5cf4a8c7600790920291820190815560208501517fdf6966c971051c3d54ec59162606531493a51404a002842f56009d7e5cf4a8c8830180546001600160a01b031916919095161790935560408401517fdf6966c971051c3d54ec59162606531493a51404a002842f56009d7e5cf4a8c982015560608401517fdf6966c971051c3d54ec59162606531493a51404a002842f56009d7e5cf4a8ca82015560808401517fdf6966c971051c3d54ec59162606531493a51404a002842f56009d7e5cf4a8cb909101805485949360ff1990911690836002811115610f1557610f15613749565b021790555060a08201516004820180546001600160a01b0390921661010002610100600160a81b031990921691909117905560c0820151600582015560e09091015160069091015560008481526012602052604081208951600192908b9086908110610f8357610f83613e8f565b6020908102919091018101516001600160a01b03168252810191909152604001600020805460ff19169115159190911790555080610fc081613ebb565b915050610b5c565b50610fd1612a21565b50505050505050565b60606007805480602002602001604051908101604052809291908181526020016000905b828210156110aa57838290600052602060002001805461101d90613df5565b80601f016020809104026020016040519081016040528092919081815260200182805461104990613df5565b80156110965780601f1061106b57610100808354040283529160200191611096565b820191906000526020600020905b81548152906001019060200180831161107957829003601f168201915b505050505081526020019060010190610ffe565b50505050905090565b6001600160a01b0385163314806110cf57506110cf8533610545565b6110eb5760405162461bcd60e51b815260040161066790613ed4565b6110f88585858585612a2f565b5050505050565b6001600160a01b0381166000908152601560209081526040808320805482518185028101850190935280835260609492939192909184015b828210156112e45760008481526020908190206040805161010081018252600886029092018054835260018101546001600160a01b03169383019390935260028084015491830191909152600383015460608301526004830154919291608084019160ff909116908111156111ae576111ae613749565b60028111156111bf576111bf613749565b81526020016005820180548060200260200160405190810160405280929190818152602001828054801561121c57602002820191906000526020600020905b81546001600160a01b031681526001909101906020018083116111fe575b505050505081526020016006820180548060200260200160405190810160405280929190818152602001828054801561127457602002820191906000526020600020905b815481526020019060010190808311611260575b50505050508152602001600782018054806020026020016040519081016040528092919081815260200182805480156112cc57602002820191906000526020600020905b8154815260200190600101908083116112b8575b50505050508152505081526020019060010190611137565b505050509050919050565b6112f76129bb565b6004546040516000916001600160a01b03169047908381818185875af1925050503d8060008114611344576040519150601f19603f3d011682016040523d82523d6000602084013e611349565b606091505b50509050806106fa5760405162461bcd60e51b81526020600482015260146024820152732330b4b632b2103a379039b2b7321022ba3432b960611b6044820152606401610667565b6060600b805480602002602001604051908101604052809291908181526020016000905b828210156110aa5760008481526020908190206040805161010081018252600886029092018054835260018101546001600160a01b03169383019390935260028084015491830191909152600383015460608301526004830154919291608084019160ff9091169081111561142c5761142c613749565b600281111561143d5761143d613749565b81526020016005820180548060200260200160405190810160405280929190818152602001828054801561149a57602002820191906000526020600020905b81546001600160a01b0316815260019091019060200180831161147c575b50505050508152602001600682018054806020026020016040519081016040528092919081815260200182805480156114f257602002820191906000526020600020905b8154815260200190600101908083116114de575b505050505081526020016007820180548060200260200160405190810160405280929190818152602001828054801561154a57602002820191906000526020600020905b815481526020019060010190808311611536575b505050505081525050815260200190600101906113b5565b606081518351146115c75760405162461bcd60e51b815260206004820152602960248201527f455243313135353a206163636f756e747320616e6420696473206c656e677468604482015268040dad2e6dac2e8c6d60bb1b6064820152608401610667565b600083516001600160401b038111156115e2576115e2613331565b60405190808252806020026020018201604052801561160b578160200160208202803683370190505b50905060005b84518110156116835761165685828151811061162f5761162f613e8f565b602002602001015185838151811061164957611649613e8f565b6020026020010151610600565b82828151811061166857611668613e8f565b602090810291909101015261167c81613ebb565b9050611611565b509392505050565b60006116956127e8565b60408051608081018252828152602081018690529081018790526060810186905260078054600181018255600091909152919250907fa66cc928b5edb82af9bd49922954155ab7b0942694bea4ce44661d9a8736c688016116f68482613f6d565b50336000908152600860209081526040822080546001810182559083529120016117208482613f6d565b50600a8054600181018255600091909152815160049091027fc65a7bb8d6351c1cf70c95a316cc6a92839c986682d98bc35f958f4883f9d2a8810191825560208301518392917fc65a7bb8d6351c1cf70c95a316cc6a92839c986682d98bc35f958f4883f9d2a901906117939082613f6d565b506040828101516002830155606090920151600390910155600083815260116020908152919020825181559082015182919060018201906117d49082613f6d565b5060408281015160028301556060909201516003909101553360009081526010602090815291812080546001818101835591835291839020845160049093020191825591830151839282019061182a9082613f6d565b506040828101516002830155606090920151600390910155336000908152600f60209081528282208583528152919020825181559082015182919060018201906118749082613f6d565b5060408201518160020155606082015181600301559050506118a733838860405180602001604052806000815250612c04565b817faff634f51c8177dd55c983ca59533207b3cf9811d594395e903133e3f1c3262c338888886040516118dd949392919061402c565b60405180910390a26118ed612d0f565b505050505050565b6001600160a01b0381166000908152601060209081526040808320805482518185028101850190935280835260609492939192909184015b828210156112e457838290600052602060002090600402016040518060800160405290816000820154815260200160018201805461196a90613df5565b80601f016020809104026020016040519081016040528092919081815260200182805461199690613df5565b80156119e35780601f106119b8576101008083540402835291602001916119e3565b820191906000526020600020905b8154815290600101906020018083116119c657829003601f168201915b50505050508152602001600282015481526020016003820154815250508152602001906001019061192d565b6001600160a01b0381166000908152600860209081526040808320805482518185028101850190935280835260609492939192909184015b828210156112e4578382906000526020600020018054611a6690613df5565b80601f0160208091040260200160405190810160405280929190818152602001828054611a9290613df5565b8015611adf5780601f10611ab457610100808354040283529160200191611adf565b820191906000526020600020905b815481529060010190602001808311611ac257829003601f168201915b505050505081526020019060010190611a47565b611b3c6040518060e0016040528060006001600160a01b031681526020016060815260200160608152602001600081526020016060815260200160608152602001606081525090565b6001600160a01b038083166000908152600d6020908152604091829020825160e081019093528054909316825260018301805492939291840191611b7f90613df5565b80601f0160208091040260200160405190810160405280929190818152602001828054611bab90613df5565b8015611bf85780601f10611bcd57610100808354040283529160200191611bf8565b820191906000526020600020905b815481529060010190602001808311611bdb57829003601f168201915b50505050508152602001600282018054611c1190613df5565b80601f0160208091040260200160405190810160405280929190818152602001828054611c3d90613df5565b8015611c8a5780601f10611c5f57610100808354040283529160200191611c8a565b820191906000526020600020905b815481529060010190602001808311611c6d57829003601f168201915b5050505050815260200160038201548152602001600482018054611cad90613df5565b80601f0160208091040260200160405190810160405280929190818152602001828054611cd990613df5565b8015611d265780601f10611cfb57610100808354040283529160200191611d26565b820191906000526020600020905b815481529060010190602001808311611d0957829003601f168201915b50505050508152602001600582018054611d3f90613df5565b80601f0160208091040260200160405190810160405280929190818152602001828054611d6b90613df5565b8015611db85780601f10611d8d57610100808354040283529160200191611db8565b820191906000526020600020905b815481529060010190602001808311611d9b57829003601f168201915b50505050508152602001600682018054611dd190613df5565b80601f0160208091040260200160405190810160405280929190818152602001828054611dfd90613df5565b8015611e4a5780601f10611e1f57610100808354040283529160200191611e4a565b820191906000526020600020905b815481529060010190602001808311611e2d57829003601f168201915b5050505050815250509050919050565b336000818152600e602090815260408083208054600160ff199091168117909155815160e0810183526001600160a01b038d811682528185018d81528285018d9052606083018c9052608083018b905260a083018a905260c08301899052968652600d90945291909320815181546001600160a01b031916931692909217825592518392820190611eeb9082613f6d565b5060408201516002820190611f009082613f6d565b506060820151600382015560808201516004820190611f1f9082613f6d565b5060a08201516005820190611f349082613f6d565b5060c08201516006820190611f499082613f6d565b50506009805460018101825560009190915282517f6e1540171b6c0c960b71a7020d9f60077f6af931a8bbf590da0223dacf75c7af600790920291820180546001600160a01b0319166001600160a01b03909216919091178155602084015184935090917f6e1540171b6c0c960b71a7020d9f60077f6af931a8bbf590da0223dacf75c7b00190611fda9082613f6d565b5060408201516002820190611fef9082613f6d565b50606082015160038201556080820151600482019061200e9082613f6d565b5060a082015160058201906120239082613f6d565b5060c082015160068201906120389082613f6d565b5050505050505050505050565b61204d6129bb565b6120576000612d1d565b565b600061206460065490565b905090565b60606009805480602002602001604051908101604052809291908181526020016000905b828210156110aa5760008481526020908190206040805160e081019091526007850290910180546001600160a01b0316825260018101805492939192918401916120d690613df5565b80601f016020809104026020016040519081016040528092919081815260200182805461210290613df5565b801561214f5780601f106121245761010080835404028352916020019161214f565b820191906000526020600020905b81548152906001019060200180831161213257829003601f168201915b5050505050815260200160028201805461216890613df5565b80601f016020809104026020016040519081016040528092919081815260200182805461219490613df5565b80156121e15780601f106121b6576101008083540402835291602001916121e1565b820191906000526020600020905b8154815290600101906020018083116121c457829003601f168201915b505050505081526020016003820154815260200160048201805461220490613df5565b80601f016020809104026020016040519081016040528092919081815260200182805461223090613df5565b801561227d5780601f106122525761010080835404028352916020019161227d565b820191906000526020600020905b81548152906001019060200180831161226057829003601f168201915b5050505050815260200160058201805461229690613df5565b80601f01602080910402602001604051908101604052809291908181526020018280546122c290613df5565b801561230f5780601f106122e45761010080835404028352916020019161230f565b820191906000526020600020905b8154815290600101906020018083116122f257829003601f168201915b5050505050815260200160068201805461232890613df5565b80601f016020809104026020016040519081016040528092919081815260200182805461235490613df5565b80156123a15780601f10612376576101008083540402835291602001916123a1565b820191906000526020600020905b81548152906001019060200180831161238457829003601f168201915b5050505050815250508152602001906001019061208d565b33600090815260146020908152604080832085845282528083208151610100810183528154815260018201546001600160a01b031693810193909352600280820154928401929092526003810154606084015260048101549091608084019160ff169081111561242b5761242b613749565b600281111561243c5761243c613749565b81526020016004820160019054906101000a90046001600160a01b03166001600160a01b03166001600160a01b031681526020016005820154815260200160068201548152505090506040518060800160405280826060015181526020018381526020016124b283602001518460600151610600565b815260e0830151602091820152336000908152600f825260408082206060860151835283529020825181559082015160018201906124f09082613f6d565b506040820151816002015560608201518160030155905050612516338260600151610600565b602080830180516001600160a01b03166000908152600f83526040808220606087018051845294529020600201929092559051905160c083015161255c92913391612d6f565b600081602001516001600160a01b03168260e0015160405160006040518083038185875af1925050503d80600081146125b1576040519150601f19603f3d011682016040523d82523d6000602084013e6125b6565b606091505b50509050806125fe5760405162461bcd60e51b81526020600482015260146024820152732330b4b632b2103a379039b2b7321022ba3432b960611b6044820152606401610667565b6020820151606083015160c084015160405133936001600160a01b0316927fb4b510017fa3548bf934bbeafb570ebc4f19982ace19ae88d2de59a13addebf19261265092918252602082015260400190565b60405180910390a3506001608091909101525050565b33600090815260166020908152604080832084845282529182902060048101805460ff1916600217905560010154825184815292516001600160a01b03909116927f871dc347e88ef58454c9f69d734469ed3f59dd31fd0d6b7960d092da71f4454d92908290030190a250565b6126de338383612d91565b5050565b6060600a805480602002602001604051908101604052809291908181526020016000905b828210156110aa57838290600052602060002090600402016040518060800160405290816000820154815260200160018201805461274390613df5565b80601f016020809104026020016040519081016040528092919081815260200182805461276f90613df5565b80156127bc5780601f10612791576101008083540402835291602001916127bc565b820191906000526020600020905b81548152906001019060200180831161279f57829003601f168201915b505050505081526020016002820154815260200160038201548152505081526020019060010190612706565b600061206460055490565b6001600160a01b03851633148061280f575061280f8533610545565b61282b5760405162461bcd60e51b815260040161066790613ed4565b6110f88585858585612e71565b6128406129bb565b6001600160a01b0381166128a55760405162461bcd60e51b815260206004820152602660248201527f4f776e61626c653a206e6577206f776e657220697320746865207a65726f206160448201526564647265737360d01b6064820152608401610667565b6106fa81612d1d565b6001600160a01b0381166000908152601360209081526040808320805482518185028101850190935280835260609492939192909184015b828210156112e45760008481526020908190206040805161010081018252600786029092018054835260018101546001600160a01b03169383019390935260028084015491830191909152600383015460608301526004830154919291608084019160ff9091169081111561295d5761295d613749565b600281111561296e5761296e613749565b8152600482015461010090046001600160a01b03166020808301919091526005830154604083015260069092015460609091015290825260019290920191016128e6565b80546001019055565b6003546001600160a01b031633146120575760405162461bcd60e51b815260206004820181905260248201527f4f776e61626c653a2063616c6c6572206973206e6f7420746865206f776e65726044820152606401610667565b60026126de8282613f6d565b612057600680546001019055565b8151835114612a915760405162461bcd60e51b815260206004820152602860248201527f455243313135353a2069647320616e6420616d6f756e7473206c656e677468206044820152670dad2e6dac2e8c6d60c31b6064820152608401610667565b6001600160a01b038416612ab75760405162461bcd60e51b815260040161066790614063565b3360005b8451811015612b9e576000858281518110612ad857612ad8613e8f565b602002602001015190506000858381518110612af657612af6613e8f565b602090810291909101810151600084815280835260408082206001600160a01b038e168352909352919091205490915081811015612b465760405162461bcd60e51b8152600401610667906140a8565b6000838152602081815260408083206001600160a01b038e8116855292528083208585039055908b16825281208054849290612b839084906140f2565b9250508190555050505080612b9790613ebb565b9050612abb565b50846001600160a01b0316866001600160a01b0316826001600160a01b03167f4a39dc06d4c0dbc64b70af90fd698a233a518aa5d07e595d983b8c0526c8f7fb8787604051612bee929190614105565b60405180910390a46118ed818787878787612f9b565b6001600160a01b038416612c645760405162461bcd60e51b815260206004820152602160248201527f455243313135353a206d696e7420746f20746865207a65726f206164647265736044820152607360f81b6064820152608401610667565b336000612c70856130f6565b90506000612c7d856130f6565b90506000868152602081815260408083206001600160a01b038b16845290915281208054879290612caf9084906140f2565b909155505060408051878152602081018790526001600160a01b03808a1692600092918716917fc3d58168c5ae7397731d063d5bbf3d657854427343f4c083240f7aacaa2d0f62910160405180910390a4610fd183600089898989613141565b612057600580546001019055565b600380546001600160a01b038381166001600160a01b0319831681179093556040519116919082907f8be0079c531659141344cd1fd0a4f28419497f9722a3daafe3b4186f6b6457e090600090a35050565b612d8b8484848460405180602001604052806000815250612e71565b50505050565b816001600160a01b0316836001600160a01b031603612e045760405162461bcd60e51b815260206004820152602960248201527f455243313135353a2073657474696e6720617070726f76616c20737461747573604482015268103337b91039b2b63360b91b6064820152608401610667565b6001600160a01b03838116600081815260016020908152604080832094871680845294825291829020805460ff191686151590811790915591519182527f17307eab39ab6107e8899845ad3d59bd9653f200f220920489ca2b5937696c31910160405180910390a3505050565b6001600160a01b038416612e975760405162461bcd60e51b815260040161066790614063565b336000612ea3856130f6565b90506000612eb0856130f6565b90506000868152602081815260408083206001600160a01b038c16845290915290205485811015612ef35760405162461bcd60e51b8152600401610667906140a8565b6000878152602081815260408083206001600160a01b038d8116855292528083208985039055908a16825281208054889290612f309084906140f2565b909155505060408051888152602081018890526001600160a01b03808b16928c821692918816917fc3d58168c5ae7397731d063d5bbf3d657854427343f4c083240f7aacaa2d0f62910160405180910390a4612f90848a8a8a8a8a613141565b505050505050505050565b6001600160a01b0384163b156118ed5760405163bc197c8160e01b81526001600160a01b0385169063bc197c8190612fdf908990899088908890889060040161412a565b6020604051808303816000875af192505050801561301a575060408051601f3d908101601f1916820190925261301791810190614188565b60015b6130c6576130266141a5565b806308c379a00361305f575061303a6141c1565b806130455750613061565b8060405162461bcd60e51b81526004016106679190613481565b505b60405162461bcd60e51b815260206004820152603460248201527f455243313135353a207472616e7366657220746f206e6f6e2d455243313135356044820152732932b1b2b4bb32b91034b6b83632b6b2b73a32b960611b6064820152608401610667565b6001600160e01b0319811663bc197c8160e01b14610fd15760405162461bcd60e51b81526004016106679061424a565b6040805160018082528183019092526060916000919060208083019080368337019050509050828160008151811061313057613130613e8f565b602090810291909101015292915050565b6001600160a01b0384163b156118ed5760405163f23a6e6160e01b81526001600160a01b0385169063f23a6e61906131859089908990889088908890600401614292565b6020604051808303816000875af19250505080156131c0575060408051601f3d908101601f191682019092526131bd91810190614188565b60015b6131cc576130266141a5565b6001600160e01b0319811663f23a6e6160e01b14610fd15760405162461bcd60e51b81526004016106679061424a565b828054828255906000526020600020908101928215613251579160200282015b8281111561325157825182546001600160a01b0319166001600160a01b0390911617825560209092019160019091019061321c565b5061325d92915061329c565b5090565b828054828255906000526020600020908101928215613251579160200282015b82811115613251578251825591602001919060010190613281565b5b8082111561325d576000815560010161329d565b80356001600160a01b03811681146132c857600080fd5b919050565b600080604083850312156132e057600080fd5b6132e9836132b1565b946020939093013593505050565b6001600160e01b0319811681146106fa57600080fd5b60006020828403121561331f57600080fd5b813561332a816132f7565b9392505050565b634e487b7160e01b600052604160045260246000fd5b601f8201601f191681016001600160401b038111828210171561336c5761336c613331565b6040525050565b600082601f83011261338457600080fd5b81356001600160401b0381111561339d5761339d613331565b6040516133b4601f8301601f191660200182613347565b8181528460208386010111156133c957600080fd5b816020850160208301376000918101602001919091529392505050565b6000602082840312156133f857600080fd5b81356001600160401b0381111561340e57600080fd5b61341a84828501613373565b949350505050565b60006020828403121561343457600080fd5b5035919050565b6000815180845260005b8181101561346157602081850181015186830182015201613445565b506000602082860101526020601f19601f83011685010191505092915050565b60208152600061332a602083018461343b565b60006001600160401b038211156134ad576134ad613331565b5060051b60200190565b600082601f8301126134c857600080fd5b813560206134d582613494565b6040516134e28282613347565b83815260059390931b850182019282810191508684111561350257600080fd5b8286015b8481101561352457613517816132b1565b8352918301918301613506565b509695505050505050565b600082601f83011261354057600080fd5b8135602061354d82613494565b60405161355a8282613347565b83815260059390931b850182019282810191508684111561357a57600080fd5b8286015b84811015613524578035835291830191830161357e565b600080600080600060a086880312156135ad57600080fd5b8535945060208601356001600160401b03808211156135cb57600080fd5b6135d789838a016134b7565b95506040880135945060608801359150808211156135f457600080fd5b61360089838a0161352f565b9350608088013591508082111561361657600080fd5b506136238882890161352f565b9150509295509295909350565b6000602080830181845280855180835260408601915060408160051b870101925083870160005b8281101561368557603f1988860301845261367385835161343b565b94509285019290850190600101613657565b5092979650505050505050565b600080600080600060a086880312156136aa57600080fd5b6136b3866132b1565b94506136c1602087016132b1565b935060408601356001600160401b03808211156136dd57600080fd5b6136e989838a0161352f565b945060608801359150808211156136ff57600080fd5b61370b89838a0161352f565b9350608088013591508082111561372157600080fd5b5061362388828901613373565b60006020828403121561374057600080fd5b61332a826132b1565b634e487b7160e01b600052602160045260246000fd5b6003811061377d57634e487b7160e01b600052602160045260246000fd5b9052565b600081518084526020808501945080840160005b838110156137ba5781516001600160a01b031687529582019590820190600101613795565b509495945050505050565b600081518084526020808501945080840160005b838110156137ba578151875295820195908201906001016137d9565b60006020808301818452808551808352604092508286019150828160051b87010184880160005b838110156138d357603f19898403018552815180518452878101516001600160a01b031688850152868101518785015260608082015190850152608080820151610100919061386d8288018261375f565b505060a080830151828288015261388683880182613781565b9250505060c080830151868303828801526138a183826137c5565b9250505060e080830151925085820381870152506138bf81836137c5565b96890196945050509086019060010161381c565b509098975050505050505050565b600080604083850312156138f457600080fd5b82356001600160401b038082111561390b57600080fd5b613917868387016134b7565b9350602085013591508082111561392d57600080fd5b5061393a8582860161352f565b9150509250929050565b60208152600061332a60208301846137c5565b6000806000806080858703121561396d57600080fd5b843593506020850135925060408501356001600160401b038082111561399257600080fd5b61399e88838901613373565b935060608701359150808211156139b457600080fd5b506139c187828801613373565b91505092959194509250565b60006020808301818452808551808352604092508286019150828160051b87010184880160005b838110156138d357603f19898403018552815160808151855288820151818a870152613a228287018261343b565b838a0151878b01526060938401519390960192909252505093860193908601906001016139f4565b60018060a01b0381511682526000602082015160e06020850152613a7160e085018261343b565b905060408301518482036040860152613a8a828261343b565b9150506060830151606085015260808301518482036080860152613aae828261343b565b91505060a083015184820360a0860152613ac8828261343b565b91505060c083015184820360c0860152613ae2828261343b565b95945050505050565b60208152600061332a6020830184613a4a565b600080600080600080600060e0888a031215613b1957600080fd5b613b22886132b1565b965060208801356001600160401b0380821115613b3e57600080fd5b613b4a8b838c01613373565b975060408a0135915080821115613b6057600080fd5b613b6c8b838c01613373565b965060608a0135955060808a0135915080821115613b8957600080fd5b613b958b838c01613373565b945060a08a0135915080821115613bab57600080fd5b613bb78b838c01613373565b935060c08a0135915080821115613bcd57600080fd5b50613bda8a828b01613373565b91505092959891949750929550565b6000602080830181845280855180835260408601915060408160051b870101925083870160005b8281101561368557603f19888603018452613c2c858351613a4a565b94509285019290850190600101613c10565b60008060408385031215613c5157600080fd5b8235915060208301356001600160401b03811115613c6e57600080fd5b61393a85828601613373565b60008060408385031215613c8d57600080fd5b613c96836132b1565b915060208301358015158114613cab57600080fd5b809150509250929050565b60008060408385031215613cc957600080fd5b613cd2836132b1565b9150613ce0602084016132b1565b90509250929050565b600080600080600060a08688031215613d0157600080fd5b613d0a866132b1565b9450613d18602087016132b1565b9350604086013592506060860135915060808601356001600160401b03811115613d4157600080fd5b61362388828901613373565b602080825282518282018190526000919060409081850190868401855b82811015613de857815180518552868101516001600160a01b0390811688870152868201518787015260608083015190870152608080830151909190613db28389018261375f565b5060a083810151909116908701525060c0808201519086015260e090810151908501526101009093019290850190600101613d6a565b5091979650505050505050565b600181811c90821680613e0957607f821691505b602082108103613e2957634e487b7160e01b600052602260045260246000fd5b50919050565b86815260018060a01b038616602082015284604082015260c060608201526000613e5c60c0830186613781565b8281036080840152613e6e81866137c5565b905082810360a0840152613e8281856137c5565b9998505050505050505050565b634e487b7160e01b600052603260045260246000fd5b634e487b7160e01b600052601160045260246000fd5b600060018201613ecd57613ecd613ea5565b5060010190565b6020808252602e908201527f455243313135353a2063616c6c6572206973206e6f7420746f6b656e206f776e60408201526d195c881bdc88185c1c1c9bdd995960921b606082015260800190565b601f821115613f6857600081815260208120601f850160051c81016020861015613f495750805b601f850160051c820191505b818110156118ed57828155600101613f55565b505050565b81516001600160401b03811115613f8657613f86613331565b613f9a81613f948454613df5565b84613f22565b602080601f831160018114613fcf5760008415613fb75750858301515b600019600386901b1c1916600185901b1785556118ed565b600085815260208120601f198616915b82811015613ffe57888601518255948401946001909101908401613fdf565b508582101561401c5787850151600019600388901b60f8161c191681555b5050505050600190811b01905550565b60018060a01b0385168152836020820152826040820152608060608201526000614059608083018461343b565b9695505050505050565b60208082526025908201527f455243313135353a207472616e7366657220746f20746865207a65726f206164604082015264647265737360d81b606082015260800190565b6020808252602a908201527f455243313135353a20696e73756666696369656e742062616c616e636520666f60408201526939103a3930b739b332b960b11b606082015260800190565b8082018082111561069357610693613ea5565b60408152600061411860408301856137c5565b8281036020840152613ae281856137c5565b6001600160a01b0386811682528516602082015260a060408201819052600090614156908301866137c5565b828103606084015261416881866137c5565b9050828103608084015261417c818561343b565b98975050505050505050565b60006020828403121561419a57600080fd5b815161332a816132f7565b600060033d11156141be5760046000803e5060005160e01c5b90565b600060443d10156141cf5790565b6040516003193d81016004833e81513d6001600160401b0381602484011181841117156141fe57505050505090565b82850191508151818111156142165750505050505090565b843d87010160208285010111156142305750505050505090565b61423f60208286010187613347565b509095945050505050565b60208082526028908201527f455243313135353a204552433131353552656365697665722072656a656374656040820152676420746f6b656e7360c01b606082015260800190565b6001600160a01b03868116825285166020820152604081018490526060810183905260a0608082018190526000906142cc9083018461343b565b97965050505050505056fea26469706673582212206eefd4235c3b886cb71e6834738f32c3bcf65c7cbbd99aa3e3a653fb849c29f164736f6c63430008110033",
  "linkReferences": {},
  "deployedLinkReferences": {}
}